{"contracts/ConfidentialPortfolio.sol":{"ConfidentialPortfolio":{"abi":[{"inputs":[],"stateMutability":"nonpayable","type":"constructor"},{"anonymous":false,"inputs":[{"indexed":true,"internalType":"address","name":"investor","type":"address"},{"indexed":true,"internalType":"uint256","name":"assetId","type":"uint256"},{"indexed":false,"internalType":"string","name":"assetName","type":"string"}],"name":"AssetAdded","type":"event"},{"anonymous":false,"inputs":[{"indexed":true,"internalType":"address","name":"manager","type":"address"}],"name":"AuthorizedManagerAdded","type":"event"},{"anonymous":false,"inputs":[{"indexed":true,"internalType":"uint256","name":"requestId","type":"uint256"},{"indexed":true,"internalType":"uint256","name":"assetId","type":"uint256"}],"name":"DecryptionRequested","type":"event"},{"anonymous":false,"inputs":[{"indexed":true,"internalType":"address","name":"investor","type":"address"},{"indexed":false,"internalType":"uint256","name":"timestamp","type":"uint256"}],"name":"PortfolioUpdated","type":"event"},{"anonymous":false,"inputs":[{"indexed":true,"internalType":"address","name":"user","type":"address"},{"indexed":false,"internalType":"bytes32","name":"encryptedTotal","type":"bytes32"}],"name":"PortfolioValueCalculated","type":"event"},{"anonymous":false,"inputs":[{"indexed":true,"internalType":"uint256","name":"assetId","type":"uint256"},{"indexed":false,"internalType":"bytes32","name":"encryptedValue","type":"bytes32"}],"name":"ValueRevealed","type":"event"},{"inputs":[],"name":"MANAGEMENT_FEE","outputs":[{"internalType":"uint256","name":"","type":"uint256"}],"stateMutability":"view","type":"function"},{"inputs":[{"internalType":"address","name":"manager","type":"address"}],"name":"addAuthorizedManager","outputs":[],"stateMutability":"nonpayable","type":"function"},{"inputs":[{"internalType":"uint64","name":"_value","type":"uint64"},{"internalType":"uint64","name":"_quantity","type":"uint64"},{"internalType":"string","name":"_assetName","type":"string"},{"internalType":"uint32","name":"_riskLevel","type":"uint32"}],"name":"addEncryptedAsset","outputs":[{"internalType":"uint256","name":"assetId","type":"uint256"}],"stateMutability":"payable","type":"function"},{"inputs":[{"internalType":"address","name":"","type":"address"}],"name":"authorizedManagers","outputs":[{"internalType":"bool","name":"","type":"bool"}],"stateMutability":"view","type":"function"},{"inputs":[],"name":"calculateEncryptedPortfolioValue","outputs":[{"internalType":"bytes32","name":"encryptedTotal","type":"bytes32"}],"stateMutability":"nonpayable","type":"function"},{"inputs":[{"internalType":"uint256","name":"assetId1","type":"uint256"},{"internalType":"uint256","name":"assetId2","type":"uint256"}],"name":"compareEncryptedAssetValues","outputs":[{"internalType":"bool","name":"","type":"bool"}],"stateMutability":"view","type":"function"},{"inputs":[{"internalType":"uint256","name":"assetId","type":"uint256"}],"name":"deactivateAsset","outputs":[],"stateMutability":"nonpayable","type":"function"},{"inputs":[{"internalType":"uint256","name":"","type":"uint256"}],"name":"decryptionRequests","outputs":[{"internalType":"uint256","name":"assetId","type":"uint256"},{"internalType":"address","name":"requester","type":"address"},{"internalType":"uint256","name":"timestamp","type":"uint256"},{"internalType":"bool","name":"processed","type":"bool"}],"stateMutability":"view","type":"function"},{"inputs":[],"name":"generateRandomEncryptedValue","outputs":[{"internalType":"bytes32","name":"","type":"bytes32"}],"stateMutability":"view","type":"function"},{"inputs":[{"internalType":"uint256","name":"assetId","type":"uint256"}],"name":"getAssetInfo","outputs":[{"internalType":"string","name":"assetName","type":"string"},{"internalType":"uint32","name":"riskLevel","type":"uint32"},{"internalType":"bool","name":"active","type":"bool"},{"internalType":"uint256","name":"timestamp","type":"uint256"},{"internalType":"address","name":"assetOwner","type":"address"}],"stateMutability":"view","type":"function"},{"inputs":[],"name":"getContractBalance","outputs":[{"internalType":"uint256","name":"","type":"uint256"}],"stateMutability":"view","type":"function"},{"inputs":[{"internalType":"uint256","name":"requestId","type":"uint256"}],"name":"getDecryptionRequest","outputs":[{"internalType":"uint256","name":"assetId","type":"uint256"},{"internalType":"address","name":"requester","type":"address"},{"internalType":"uint256","name":"timestamp","type":"uint256"},{"internalType":"bool","name":"processed","type":"bool"}],"stateMutability":"view","type":"function"},{"inputs":[{"internalType":"uint256","name":"assetId","type":"uint256"}],"name":"getEncryptedAssetValues","outputs":[{"internalType":"bytes32","name":"encryptedValue","type":"bytes32"},{"internalType":"bytes32","name":"encryptedQuantity","type":"bytes32"},{"internalType":"bytes32","name":"valueHash","type":"bytes32"}],"stateMutability":"view","type":"function"},{"inputs":[],"name":"getMyAssetCount","outputs":[{"internalType":"uint256","name":"","type":"uint256"}],"stateMutability":"view","type":"function"},{"inputs":[],"name":"getMyAssetIds","outputs":[{"internalType":"uint256[]","name":"","type":"uint256[]"}],"stateMutability":"view","type":"function"},{"inputs":[],"name":"getPortfolioRiskDistribution","outputs":[{"internalType":"uint256","name":"lowRisk","type":"uint256"},{"internalType":"uint256","name":"mediumRisk","type":"uint256"},{"internalType":"uint256","name":"highRisk","type":"uint256"},{"internalType":"uint256","name":"veryHighRisk","type":"uint256"}],"stateMutability":"view","type":"function"},{"inputs":[{"internalType":"address","name":"user","type":"address"}],"name":"getPortfolioStats","outputs":[{"internalType":"uint256","name":"totalAssets","type":"uint256"},{"internalType":"uint256","name":"lastUpdate","type":"uint256"},{"internalType":"bool","name":"hasAssets","type":"bool"},{"internalType":"bytes32","name":"totalValueHash","type":"bytes32"}],"stateMutability":"view","type":"function"},{"inputs":[],"name":"owner","outputs":[{"internalType":"address","name":"","type":"address"}],"stateMutability":"view","type":"function"},{"inputs":[{"internalType":"address","name":"","type":"address"}],"name":"portfolioStats","outputs":[{"internalType":"uint256","name":"totalAssets","type":"uint256"},{"internalType":"uint256","name":"lastUpdate","type":"uint256"},{"internalType":"bool","name":"hasAssets","type":"bool"},{"internalType":"bytes32","name":"totalValueHash","type":"bytes32"}],"stateMutability":"view","type":"function"},{"inputs":[{"internalType":"address","name":"manager","type":"address"}],"name":"removeAuthorizedManager","outputs":[],"stateMutability":"nonpayable","type":"function"},{"inputs":[{"internalType":"uint256","name":"assetId","type":"uint256"}],"name":"requestAssetDecryption","outputs":[{"internalType":"uint256","name":"requestId","type":"uint256"}],"stateMutability":"nonpayable","type":"function"},{"inputs":[{"internalType":"address","name":"","type":"address"},{"internalType":"uint256","name":"","type":"uint256"}],"name":"userAssetIds","outputs":[{"internalType":"uint256","name":"","type":"uint256"}],"stateMutability":"view","type":"function"},{"inputs":[{"internalType":"address","name":"","type":"address"},{"internalType":"uint256","name":"","type":"uint256"}],"name":"userAssets","outputs":[{"internalType":"bytes32","name":"encryptedValue","type":"bytes32"},{"internalType":"bytes32","name":"encryptedQuantity","type":"bytes32"},{"internalType":"uint32","name":"riskLevel","type":"uint32"},{"internalType":"address","name":"owner","type":"address"},{"internalType":"bool","name":"active","type":"bool"},{"internalType":"uint256","name":"timestamp","type":"uint256"},{"internalType":"string","name":"assetName","type":"string"},{"internalType":"bytes32","name":"valueHash","type":"bytes32"}],"stateMutability":"view","type":"function"},{"inputs":[],"name":"withdrawFees","outputs":[],"stateMutability":"nonpayable","type":"function"},{"stateMutability":"payable","type":"receive"}],"evm":{"bytecode":{"linkReferences":{},"object":"6080806040523461004957600080546001600160a01b0319163390811782558152600560205260409020805460ff1916600190811790915580805560075561165f908161004f8239f35b600080fdfe6080604052600436101561001b575b361561001957600080fd5b005b60003560e01c8062497e76146112d55780630a3cb21b14611296578063171abbeb1461126c5780631d87b4ee14610b5b578063319af5e01461115757806337732fa414611100578063476343ee146110ad5780635f1554e31461108f578063689ef198146110425780636a8a69aa14610f8a5780636e481db314610df45780636f9fb98a14610dd857806377a5ebbd1461038d57806389ddd71e14610d335780638da5cb5b14610d0c5780639524c5e314610bc85780639b8406d314610b5b578063b4b6219114610538578063b9c9f3961461046e578063caeb483d14610404578063d3722d011461038d578063da63dab714610211578063dd99d123146101c75763f637d9500361000e57346101c25760203660031901126101c257336000526002602052604060002060043560005260205261019c604060002060028101546001600160a01b038160201c1661017433821461155f565b610185600460038501549401611409565b9260ff60405195869560a0875260a08701906114ae565b9363ffffffff8116602087015260c01c1615156040850152606084015260808301520390f35b600080fd5b346101c25760203660031901126101c2576101e0611347565b6001600160a01b03906101f8826000541633146114ee565b166000908152600560205260409020805460ff19169055005b346101c25760003660031901126101c2576000806000906000903360005260039360209360038552604060002095604051808888829a54938481520190600052886000209260005b8a82821061037757505050610270925003886113e7565b60005b875181101561035b573360005260028088526040600020895183101561034557888360051b8b0101516000528852806040600020015460ff8160c01c166102bf575b5050600101610273565b91959163ffffffff1690816102e45750506102db6001916115aa565b945b90896102b5565b91959491600182036103035750506102fd6001916115aa565b936102dd565b91949391810361031f57506103196001916115aa565b926102dd565b9092908214610331575b6001906102dd565b9461033d6001916115aa565b959050610329565b634e487b7160e01b600052603260045260246000fd5b5050608093918560405194855284015260408301526060820152f35b855484526001958601958d955093019201610259565b346101c25760203660031901126101c2576004356000526006602052604060002080546104006001600160a01b036001840154169260ff60036002830154920154169060405194859485926001600160a01b03606093969592966080860197865216602085015260408401521515910152565b0390f35b346101c25760203660031901126101c25733600052600260205260406000206004356000526020526060604060002061044e336001600160a01b03600284015460201c161461155f565b805490600560018201549101549060405192835260208301526040820152f35b346101c25760403660031901126101c257336000526020600281526040600020600435600052815260406000203360005260028252604060002060243560005282526040600020906001600160a01b0333816002840154861c16149081610526575b50156104e25754905410604051908152f35b6064836040519062461bcd60e51b82526004820152601060248201527f417373657473206e6f74206f776e6564000000000000000000000000000000006044820152fd5b6002840154851c1633149050846104d0565b60803660031901126101c25767ffffffffffffffff6004351680600435036101c25767ffffffffffffffff602435169081602435036101c2576044359167ffffffffffffffff83116101c257366023840112156101c25767ffffffffffffffff8360040135116101c2573660248460040135850101116101c2576064359163ffffffff831683036101c257620f42403410610b1757600363ffffffff841611610ad357836004013515610a8f5715159081610a85575b5015610a415760015490610601826115aa565b60015561061182336004356115b9565b60018301808411610a2b5761062990336024356115b9565b9060405160208101907fffffffffffffffff0000000000000000000000000000000000000000000000008060043560c01b16835260243560c01b1660288201523360601b603082015242604482015260448152610685816113cb565b51902092604051928361010081011067ffffffffffffffff610100860111176109505763ffffffff92610100850160405284526020840152166040820152336060820152600160808201524260a0820152604051916106f26020601f19601f8860040135011601846113e7565b60048501358084526024860160208501376000602086600401358501015260c0820192835260e082015233600052600260205260406000208360005260205260406000209181518355602082015160018401556002830163ffffffff60408401511681549077ffffffffffffffffffffffffffffffffffffffff00000000606086015160201b16907fffffffffffffff0000000000000000000000000000000000000000000000000078ff0000000000000000000000000000000000000000000000006080880151151560c01b169316171717905560a082015160038401555180519067ffffffffffffffff8211610950576107f16004850154611375565b601f81116109e4575b50602090601f83116001146109715791806005949260e094600092610966575b50508160011b916000199060031b1c19161760048501555b0151910155336000526003602052604060002091825490680100000000000000008210156109505761086d826020956001869501815561135d565b81549060031b9084821b91600019901b19161790553360005260048452604060002061089981546115aa565b905533600052600484526002604060002042600182015501600160ff198254161790557fd9943d316e03c76a0277683e5fa4ed2b175e6568c8d3a22d9f0b32092e584a286040518581528260040135868201528260040135602484016040830137600060408460040135830101526040813394601f8019916004013501168101030190a36040514281527ffcfa0761dab6873023e04c2d8e99cefdc3d64ee860c8bdf9742211179e723bed833392a2604051908152f35b634e487b7160e01b600052604160045260246000fd5b01519050888061081a565b90601f198316916004860160005260206000209260005b8181106109cc575092600192859260e09660059896106109b3575b505050811b016004850155610832565b015160001960f88460031b161c191690558880806109a3565b92936020600181928786015181550195019301610988565b600485016000526020600020601f840160051c810160208510610a24575b601f830160051c82018110610a185750506107fa565b60008155600101610a02565b5080610a02565b634e487b7160e01b600052601160045260246000fd5b606460405162461bcd60e51b815260206004820152600e60248201527f496e76616c69642076616c7565730000000000000000000000000000000000006044820152fd5b90501515836105ee565b606460405162461bcd60e51b815260206004820152601360248201527f4173736574206e616d65207265717569726564000000000000000000000000006044820152fd5b606460405162461bcd60e51b815260206004820152601260248201527f496e76616c6964207269736b206c6576656c00000000000000000000000000006044820152fd5b606460405162461bcd60e51b815260206004820152601b60248201527f496e73756666696369656e74206d616e6167656d656e742066656500000000006044820152fd5b346101c25760203660031901126101c2576001600160a01b03610b7c611347565b16600052600460205260406000208054610400600183015492600360ff600283015416910154906040519485948590949392606092608083019683526020830152151560408201520152565b346101c25760003660031901126101c257336000526020600381526040600020604051808284829454938481520190600052846000209260005b86828210610cf65784610c17818603826113e7565b5115610cb257604051818101907f706f7274666f6c696f5f746f74616c000000000000000000000000000000000082523360601b602f82015242604382015260438152610c63816113cb565b519020336000526004825260406000208160038201556001429101556040518181527f31dd6318a53d560abb88a9b47742835216d6941dae2c856613bd6ceda1700ad5833392a2604051908152f35b6064906040519062461bcd60e51b82526004820152601660248201527f4e6f2061737365747320696e20706f7274666f6c696f000000000000000000006044820152fd5b8554845260019586019587955093019201610c02565b346101c25760003660031901126101c25760206001600160a01b0360005416604051908152f35b346101c25760003660031901126101c25733600052602060038152604060002060405190818382549182815201908192600052846000209060005b86828210610dc4578686610d84828803836113e7565b604051928392818401908285525180915260408401929160005b828110610dad57505050500390f35b835185528695509381019392810192600101610d9e565b835485529093019260019283019201610d6e565b346101c25760003660031901126101c257602047604051908152f35b346101c2576020806003193601126101c25760043533600052600282526040600020816000528252604060002090600282015460ff6001600160a01b0391610e41338483891c161461155f565b60c01c1615610f465760075492610e57846115aa565b60075560405190608082019282841067ffffffffffffffff85111761095057600387937fc34b0d3573d005c8257e5dbaf68bec7efabf8c46b90b65fdae74d88fbef492dc9560405286815284810133815260408201904282526060830194600086528a60005260068852604060002093518455600184019151167fffffffffffffffffffffffff0000000000000000000000000000000000000000825416179055516002820155019051151560ff801983541691161790556040519084867f81bca54e6c48c44ec959a5581796be73005cbde51156a29bae607f52e9baa16c600080a3548152a2604051908152f35b6064846040519062461bcd60e51b82526004820152601360248201527f4173736574206973206e6f7420616374697665000000000000000000000000006044820152fd5b346101c25760403660031901126101c257610fa3611347565b6001600160a01b038091166000526002602052604060002060243560005260205260406000208054611038600183015492600281015492600382015460ff6005610fef60048601611409565b94015495604051988998610100958a5260208a015263ffffffff821660408a01528160201c16606089015260c01c161515608087015260a08601528060c08601528401906114ae565b9060e08301520390f35b346101c25760003660031901126101c2576020604051818101904282524460408201523360601b60608201523060601b607482015260688152611084816113af565b519020604051908152f35b346101c25760003660031901126101c2576020604051620f42408152f35b346101c25760003660031901126101c25760008080806001600160a01b038154166110d98133146114ee565b47908282156110f7575bf1156110eb57005b6040513d6000823e3d90fd5b506108fc6110e3565b346101c25760403660031901126101c257611119611347565b6001600160a01b0360243591166000526003602052604060002080548210156101c2576020916111489161135d565b90549060031b1c604051908152f35b346101c2576020806003193601126101c2573360005260028152604060002060043560005281526002604060002001805461119e336001600160a01b0383861c161461155f565b60ff8160c01c1615611228577fffffffffffffff00ffffffffffffffffffffffffffffffffffffffffffffffff1690553360005260048152604060002080548015610a2b576000190190553360005260048152426001604060002001557ffcfa0761dab6873023e04c2d8e99cefdc3d64ee860c8bdf9742211179e723bed604051914283523392a2005b6064836040519062461bcd60e51b82526004820152601660248201527f417373657420616c726561647920696e616374697665000000000000000000006044820152fd5b346101c25760003660031901126101c2573360005260036020526020604060002054604051908152f35b346101c25760203660031901126101c2576001600160a01b036112b7611347565b166000526005602052602060ff604060002054166040519015158152f35b346101c25760203660031901126101c2576112ee611347565b6001600160a01b0390611306826000541633146114ee565b168060005260056020526040600020600160ff198254161790557f06983c15b8045ff4e0535c5593bfeb156f792a6c4c1958885852b6538bb54439600080a2005b600435906001600160a01b03821682036101c257565b80548210156103455760005260206000200190600090565b90600182811c921680156113a5575b602083101461138f57565b634e487b7160e01b600052602260045260246000fd5b91607f1691611384565b60a0810190811067ffffffffffffffff82111761095057604052565b6080810190811067ffffffffffffffff82111761095057604052565b90601f8019910116810190811067ffffffffffffffff82111761095057604052565b9060405191826000825461141c81611375565b9081845260209460019160018116908160001461148c575060011461144d575b50505061144b925003836113e7565b565b600090815285812095935091905b81831061147457505061144b935082010138808061143c565b8554888401850152948501948794509183019161145b565b9250505061144b94925060ff191682840152151560051b82010138808061143c565b919082519283825260005b8481106114da575050826000602080949584010152601f8019910116010190565b6020818301810151848301820152016114b9565b156114f557565b608460405162461bcd60e51b815260206004820152602160248201527f4f6e6c79206f776e65722063616e2063616c6c20746869732066756e6374696f60448201527f6e000000000000000000000000000000000000000000000000000000000000006064820152fd5b1561156657565b606460405162461bcd60e51b815260206004820152601c60248201527f4173736574206e6f7420666f756e64206f72206e6f74206f776e6564000000006044820152fd5b6000198114610a2b5760010190565b91604051917fffffffffffffffff000000000000000000000000000000000000000000000000602084019460c01b1684526bffffffffffffffffffffffff199060601b166028830152603c82015242605c8201523060601b607c82015260708152611623816113af565b5190209056fea2646970667358221220e62858aa5407e1d4422036ecd18d42c390c516edb2842f2c40f0a85d2b3463cb64736f6c63430008180033","opcodes":"PUSH1 0x80 DUP1 PUSH1 0x40 MSTORE CALLVALUE PUSH2 0x49 JUMPI PUSH1 0x0 DUP1 SLOAD PUSH1 0x1 PUSH1 0x1 PUSH1 0xA0 SHL SUB NOT AND CALLER SWAP1 DUP2 OR DUP3 SSTORE DUP2 MSTORE PUSH1 0x5 PUSH1 0x20 MSTORE PUSH1 0x40 SWAP1 KECCAK256 DUP1 SLOAD PUSH1 0xFF NOT AND PUSH1 0x1 SWAP1 DUP2 OR SWAP1 SWAP2 SSTORE DUP1 DUP1 SSTORE PUSH1 0x7 SSTORE PUSH2 0x165F SWAP1 DUP2 PUSH2 0x4F DUP3 CODECOPY RETURN JUMPDEST PUSH1 0x0 DUP1 REVERT INVALID PUSH1 0x80 PUSH1 0x40 MSTORE PUSH1 0x4 CALLDATASIZE LT ISZERO PUSH2 0x1B JUMPI JUMPDEST CALLDATASIZE ISZERO PUSH2 0x19 JUMPI PUSH1 0x0 DUP1 REVERT JUMPDEST STOP JUMPDEST PUSH1 0x0 CALLDATALOAD PUSH1 0xE0 SHR DUP1 PUSH3 0x497E76 EQ PUSH2 0x12D5 JUMPI DUP1 PUSH4 0xA3CB21B EQ PUSH2 0x1296 JUMPI DUP1 PUSH4 0x171ABBEB EQ PUSH2 0x126C JUMPI DUP1 PUSH4 0x1D87B4EE EQ PUSH2 0xB5B JUMPI DUP1 PUSH4 0x319AF5E0 EQ PUSH2 0x1157 JUMPI DUP1 PUSH4 0x37732FA4 EQ PUSH2 0x1100 JUMPI DUP1 PUSH4 0x476343EE EQ PUSH2 0x10AD JUMPI DUP1 PUSH4 0x5F1554E3 EQ PUSH2 0x108F JUMPI DUP1 PUSH4 0x689EF198 EQ PUSH2 0x1042 JUMPI DUP1 PUSH4 0x6A8A69AA EQ PUSH2 0xF8A JUMPI DUP1 PUSH4 0x6E481DB3 EQ PUSH2 0xDF4 JUMPI DUP1 PUSH4 0x6F9FB98A EQ PUSH2 0xDD8 JUMPI DUP1 PUSH4 0x77A5EBBD EQ PUSH2 0x38D JUMPI DUP1 PUSH4 0x89DDD71E EQ PUSH2 0xD33 JUMPI DUP1 PUSH4 0x8DA5CB5B EQ PUSH2 0xD0C JUMPI DUP1 PUSH4 0x9524C5E3 EQ PUSH2 0xBC8 JUMPI DUP1 PUSH4 0x9B8406D3 EQ PUSH2 0xB5B JUMPI DUP1 PUSH4 0xB4B62191 EQ PUSH2 0x538 JUMPI DUP1 PUSH4 0xB9C9F396 EQ PUSH2 0x46E JUMPI DUP1 PUSH4 0xCAEB483D EQ PUSH2 0x404 JUMPI DUP1 PUSH4 0xD3722D01 EQ PUSH2 0x38D JUMPI DUP1 PUSH4 0xDA63DAB7 EQ PUSH2 0x211 JUMPI DUP1 PUSH4 0xDD99D123 EQ PUSH2 0x1C7 JUMPI PUSH4 0xF637D950 SUB PUSH2 0xE JUMPI CALLVALUE PUSH2 0x1C2 JUMPI PUSH1 0x20 CALLDATASIZE PUSH1 0x3 NOT ADD SLT PUSH2 0x1C2 JUMPI CALLER PUSH1 0x0 MSTORE PUSH1 0x2 PUSH1 0x20 MSTORE PUSH1 0x40 PUSH1 0x0 KECCAK256 PUSH1 0x4 CALLDATALOAD PUSH1 0x0 MSTORE PUSH1 0x20 MSTORE PUSH2 0x19C PUSH1 0x40 PUSH1 0x0 KECCAK256 PUSH1 0x2 DUP2 ADD SLOAD PUSH1 0x1 PUSH1 0x1 PUSH1 0xA0 SHL SUB DUP2 PUSH1 0x20 SHR AND PUSH2 0x174 CALLER DUP3 EQ PUSH2 0x155F JUMP JUMPDEST PUSH2 0x185 PUSH1 0x4 PUSH1 0x3 DUP6 ADD SLOAD SWAP5 ADD PUSH2 0x1409 JUMP JUMPDEST SWAP3 PUSH1 0xFF PUSH1 0x40 MLOAD SWAP6 DUP7 SWAP6 PUSH1 0xA0 DUP8 MSTORE PUSH1 0xA0 DUP8 ADD SWAP1 PUSH2 0x14AE JUMP JUMPDEST SWAP4 PUSH4 0xFFFFFFFF DUP2 AND PUSH1 0x20 DUP8 ADD MSTORE PUSH1 0xC0 SHR AND ISZERO ISZERO PUSH1 0x40 DUP6 ADD MSTORE PUSH1 0x60 DUP5 ADD MSTORE PUSH1 0x80 DUP4 ADD MSTORE SUB SWAP1 RETURN JUMPDEST PUSH1 0x0 DUP1 REVERT JUMPDEST CALLVALUE PUSH2 0x1C2 JUMPI PUSH1 0x20 CALLDATASIZE PUSH1 0x3 NOT ADD SLT PUSH2 0x1C2 JUMPI PUSH2 0x1E0 PUSH2 0x1347 JUMP JUMPDEST PUSH1 0x1 PUSH1 0x1 PUSH1 0xA0 SHL SUB SWAP1 PUSH2 0x1F8 DUP3 PUSH1 0x0 SLOAD AND CALLER EQ PUSH2 0x14EE JUMP JUMPDEST AND PUSH1 0x0 SWAP1 DUP2 MSTORE PUSH1 0x5 PUSH1 0x20 MSTORE PUSH1 0x40 SWAP1 KECCAK256 DUP1 SLOAD PUSH1 0xFF NOT AND SWAP1 SSTORE STOP JUMPDEST CALLVALUE PUSH2 0x1C2 JUMPI PUSH1 0x0 CALLDATASIZE PUSH1 0x3 NOT ADD SLT PUSH2 0x1C2 JUMPI PUSH1 0x0 DUP1 PUSH1 0x0 SWAP1 PUSH1 0x0 SWAP1 CALLER PUSH1 0x0 MSTORE PUSH1 0x3 SWAP4 PUSH1 0x20 SWAP4 PUSH1 0x3 DUP6 MSTORE PUSH1 0x40 PUSH1 0x0 KECCAK256 SWAP6 PUSH1 0x40 MLOAD DUP1 DUP9 DUP9 DUP3 SWAP11 SLOAD SWAP4 DUP5 DUP2 MSTORE ADD SWAP1 PUSH1 0x0 MSTORE DUP9 PUSH1 0x0 KECCAK256 SWAP3 PUSH1 0x0 JUMPDEST DUP11 DUP3 DUP3 LT PUSH2 0x377 JUMPI POP POP POP PUSH2 0x270 SWAP3 POP SUB DUP9 PUSH2 0x13E7 JUMP JUMPDEST PUSH1 0x0 JUMPDEST DUP8 MLOAD DUP2 LT ISZERO PUSH2 0x35B JUMPI CALLER PUSH1 0x0 MSTORE PUSH1 0x2 DUP1 DUP9 MSTORE PUSH1 0x40 PUSH1 0x0 KECCAK256 DUP10 MLOAD DUP4 LT ISZERO PUSH2 0x345 JUMPI DUP9 DUP4 PUSH1 0x5 SHL DUP12 ADD ADD MLOAD PUSH1 0x0 MSTORE DUP9 MSTORE DUP1 PUSH1 0x40 PUSH1 0x0 KECCAK256 ADD SLOAD PUSH1 0xFF DUP2 PUSH1 0xC0 SHR AND PUSH2 0x2BF JUMPI JUMPDEST POP POP PUSH1 0x1 ADD PUSH2 0x273 JUMP JUMPDEST SWAP2 SWAP6 SWAP2 PUSH4 0xFFFFFFFF AND SWAP1 DUP2 PUSH2 0x2E4 JUMPI POP POP PUSH2 0x2DB PUSH1 0x1 SWAP2 PUSH2 0x15AA JUMP JUMPDEST SWAP5 JUMPDEST SWAP1 DUP10 PUSH2 0x2B5 JUMP JUMPDEST SWAP2 SWAP6 SWAP5 SWAP2 PUSH1 0x1 DUP3 SUB PUSH2 0x303 JUMPI POP POP PUSH2 0x2FD PUSH1 0x1 SWAP2 PUSH2 0x15AA JUMP JUMPDEST SWAP4 PUSH2 0x2DD JUMP JUMPDEST SWAP2 SWAP5 SWAP4 SWAP2 DUP2 SUB PUSH2 0x31F JUMPI POP PUSH2 0x319 PUSH1 0x1 SWAP2 PUSH2 0x15AA JUMP JUMPDEST SWAP3 PUSH2 0x2DD JUMP JUMPDEST SWAP1 SWAP3 SWAP1 DUP3 EQ PUSH2 0x331 JUMPI JUMPDEST PUSH1 0x1 SWAP1 PUSH2 0x2DD JUMP JUMPDEST SWAP5 PUSH2 0x33D PUSH1 0x1 SWAP2 PUSH2 0x15AA JUMP JUMPDEST SWAP6 SWAP1 POP PUSH2 0x329 JUMP JUMPDEST PUSH4 0x4E487B71 PUSH1 0xE0 SHL PUSH1 0x0 MSTORE PUSH1 0x32 PUSH1 0x4 MSTORE PUSH1 0x24 PUSH1 0x0 REVERT JUMPDEST POP POP PUSH1 0x80 SWAP4 SWAP2 DUP6 PUSH1 0x40 MLOAD SWAP5 DUP6 MSTORE DUP5 ADD MSTORE PUSH1 0x40 DUP4 ADD MSTORE PUSH1 0x60 DUP3 ADD MSTORE RETURN JUMPDEST DUP6 SLOAD DUP5 MSTORE PUSH1 0x1 SWAP6 DUP7 ADD SWAP6 DUP14 SWAP6 POP SWAP4 ADD SWAP3 ADD PUSH2 0x259 JUMP JUMPDEST CALLVALUE PUSH2 0x1C2 JUMPI PUSH1 0x20 CALLDATASIZE PUSH1 0x3 NOT ADD SLT PUSH2 0x1C2 JUMPI PUSH1 0x4 CALLDATALOAD PUSH1 0x0 MSTORE PUSH1 0x6 PUSH1 0x20 MSTORE PUSH1 0x40 PUSH1 0x0 KECCAK256 DUP1 SLOAD PUSH2 0x400 PUSH1 0x1 PUSH1 0x1 PUSH1 0xA0 SHL SUB PUSH1 0x1 DUP5 ADD SLOAD AND SWAP3 PUSH1 0xFF PUSH1 0x3 PUSH1 0x2 DUP4 ADD SLOAD SWAP3 ADD SLOAD AND SWAP1 PUSH1 0x40 MLOAD SWAP5 DUP6 SWAP5 DUP6 SWAP3 PUSH1 0x1 PUSH1 0x1 PUSH1 0xA0 SHL SUB PUSH1 0x60 SWAP4 SWAP7 SWAP6 SWAP3 SWAP7 PUSH1 0x80 DUP7 ADD SWAP8 DUP7 MSTORE AND PUSH1 0x20 DUP6 ADD MSTORE PUSH1 0x40 DUP5 ADD MSTORE ISZERO ISZERO SWAP2 ADD MSTORE JUMP JUMPDEST SUB SWAP1 RETURN JUMPDEST CALLVALUE PUSH2 0x1C2 JUMPI PUSH1 0x20 CALLDATASIZE PUSH1 0x3 NOT ADD SLT PUSH2 0x1C2 JUMPI CALLER PUSH1 0x0 MSTORE PUSH1 0x2 PUSH1 0x20 MSTORE PUSH1 0x40 PUSH1 0x0 KECCAK256 PUSH1 0x4 CALLDATALOAD PUSH1 0x0 MSTORE PUSH1 0x20 MSTORE PUSH1 0x60 PUSH1 0x40 PUSH1 0x0 KECCAK256 PUSH2 0x44E CALLER PUSH1 0x1 PUSH1 0x1 PUSH1 0xA0 SHL SUB PUSH1 0x2 DUP5 ADD SLOAD PUSH1 0x20 SHR AND EQ PUSH2 0x155F JUMP JUMPDEST DUP1 SLOAD SWAP1 PUSH1 0x5 PUSH1 0x1 DUP3 ADD SLOAD SWAP2 ADD SLOAD SWAP1 PUSH1 0x40 MLOAD SWAP3 DUP4 MSTORE PUSH1 0x20 DUP4 ADD MSTORE PUSH1 0x40 DUP3 ADD MSTORE RETURN JUMPDEST CALLVALUE PUSH2 0x1C2 JUMPI PUSH1 0x40 CALLDATASIZE PUSH1 0x3 NOT ADD SLT PUSH2 0x1C2 JUMPI CALLER PUSH1 0x0 MSTORE PUSH1 0x20 PUSH1 0x2 DUP2 MSTORE PUSH1 0x40 PUSH1 0x0 KECCAK256 PUSH1 0x4 CALLDATALOAD PUSH1 0x0 MSTORE DUP2 MSTORE PUSH1 0x40 PUSH1 0x0 KECCAK256 CALLER PUSH1 0x0 MSTORE PUSH1 0x2 DUP3 MSTORE PUSH1 0x40 PUSH1 0x0 KECCAK256 PUSH1 0x24 CALLDATALOAD PUSH1 0x0 MSTORE DUP3 MSTORE PUSH1 0x40 PUSH1 0x0 KECCAK256 SWAP1 PUSH1 0x1 PUSH1 0x1 PUSH1 0xA0 SHL SUB CALLER DUP2 PUSH1 0x2 DUP5 ADD SLOAD DUP7 SHR AND EQ SWAP1 DUP2 PUSH2 0x526 JUMPI JUMPDEST POP ISZERO PUSH2 0x4E2 JUMPI SLOAD SWAP1 SLOAD LT PUSH1 0x40 MLOAD SWAP1 DUP2 MSTORE RETURN JUMPDEST PUSH1 0x64 DUP4 PUSH1 0x40 MLOAD SWAP1 PUSH3 0x461BCD PUSH1 0xE5 SHL DUP3 MSTORE PUSH1 0x4 DUP3 ADD MSTORE PUSH1 0x10 PUSH1 0x24 DUP3 ADD MSTORE PUSH32 0x417373657473206E6F74206F776E656400000000000000000000000000000000 PUSH1 0x44 DUP3 ADD MSTORE REVERT JUMPDEST PUSH1 0x2 DUP5 ADD SLOAD DUP6 SHR AND CALLER EQ SWAP1 POP DUP5 PUSH2 0x4D0 JUMP JUMPDEST PUSH1 0x80 CALLDATASIZE PUSH1 0x3 NOT ADD SLT PUSH2 0x1C2 JUMPI PUSH8 0xFFFFFFFFFFFFFFFF PUSH1 0x4 CALLDATALOAD AND DUP1 PUSH1 0x4 CALLDATALOAD SUB PUSH2 0x1C2 JUMPI PUSH8 0xFFFFFFFFFFFFFFFF PUSH1 0x24 CALLDATALOAD AND SWAP1 DUP2 PUSH1 0x24 CALLDATALOAD SUB PUSH2 0x1C2 JUMPI PUSH1 0x44 CALLDATALOAD SWAP2 PUSH8 0xFFFFFFFFFFFFFFFF DUP4 GT PUSH2 0x1C2 JUMPI CALLDATASIZE PUSH1 0x23 DUP5 ADD SLT ISZERO PUSH2 0x1C2 JUMPI PUSH8 0xFFFFFFFFFFFFFFFF DUP4 PUSH1 0x4 ADD CALLDATALOAD GT PUSH2 0x1C2 JUMPI CALLDATASIZE PUSH1 0x24 DUP5 PUSH1 0x4 ADD CALLDATALOAD DUP6 ADD ADD GT PUSH2 0x1C2 JUMPI PUSH1 0x64 CALLDATALOAD SWAP2 PUSH4 0xFFFFFFFF DUP4 AND DUP4 SUB PUSH2 0x1C2 JUMPI PUSH3 0xF4240 CALLVALUE LT PUSH2 0xB17 JUMPI PUSH1 0x3 PUSH4 0xFFFFFFFF DUP5 AND GT PUSH2 0xAD3 JUMPI DUP4 PUSH1 0x4 ADD CALLDATALOAD ISZERO PUSH2 0xA8F JUMPI ISZERO ISZERO SWAP1 DUP2 PUSH2 0xA85 JUMPI JUMPDEST POP ISZERO PUSH2 0xA41 JUMPI PUSH1 0x1 SLOAD SWAP1 PUSH2 0x601 DUP3 PUSH2 0x15AA JUMP JUMPDEST PUSH1 0x1 SSTORE PUSH2 0x611 DUP3 CALLER PUSH1 0x4 CALLDATALOAD PUSH2 0x15B9 JUMP JUMPDEST PUSH1 0x1 DUP4 ADD DUP1 DUP5 GT PUSH2 0xA2B JUMPI PUSH2 0x629 SWAP1 CALLER PUSH1 0x24 CALLDATALOAD PUSH2 0x15B9 JUMP JUMPDEST SWAP1 PUSH1 0x40 MLOAD PUSH1 0x20 DUP2 ADD SWAP1 PUSH32 0xFFFFFFFFFFFFFFFF000000000000000000000000000000000000000000000000 DUP1 PUSH1 0x4 CALLDATALOAD PUSH1 0xC0 SHL AND DUP4 MSTORE PUSH1 0x24 CALLDATALOAD PUSH1 0xC0 SHL AND PUSH1 0x28 DUP3 ADD MSTORE CALLER PUSH1 0x60 SHL PUSH1 0x30 DUP3 ADD MSTORE TIMESTAMP PUSH1 0x44 DUP3 ADD MSTORE PUSH1 0x44 DUP2 MSTORE PUSH2 0x685 DUP2 PUSH2 0x13CB JUMP JUMPDEST MLOAD SWAP1 KECCAK256 SWAP3 PUSH1 0x40 MLOAD SWAP3 DUP4 PUSH2 0x100 DUP2 ADD LT PUSH8 0xFFFFFFFFFFFFFFFF PUSH2 0x100 DUP7 ADD GT OR PUSH2 0x950 JUMPI PUSH4 0xFFFFFFFF SWAP3 PUSH2 0x100 DUP6 ADD PUSH1 0x40 MSTORE DUP5 MSTORE PUSH1 0x20 DUP5 ADD MSTORE AND PUSH1 0x40 DUP3 ADD MSTORE CALLER PUSH1 0x60 DUP3 ADD MSTORE PUSH1 0x1 PUSH1 0x80 DUP3 ADD MSTORE TIMESTAMP PUSH1 0xA0 DUP3 ADD MSTORE PUSH1 0x40 MLOAD SWAP2 PUSH2 0x6F2 PUSH1 0x20 PUSH1 0x1F NOT PUSH1 0x1F DUP9 PUSH1 0x4 ADD CALLDATALOAD ADD AND ADD DUP5 PUSH2 0x13E7 JUMP JUMPDEST PUSH1 0x4 DUP6 ADD CALLDATALOAD DUP1 DUP5 MSTORE PUSH1 0x24 DUP7 ADD PUSH1 0x20 DUP6 ADD CALLDATACOPY PUSH1 0x0 PUSH1 0x20 DUP7 PUSH1 0x4 ADD CALLDATALOAD DUP6 ADD ADD MSTORE PUSH1 0xC0 DUP3 ADD SWAP3 DUP4 MSTORE PUSH1 0xE0 DUP3 ADD MSTORE CALLER PUSH1 0x0 MSTORE PUSH1 0x2 PUSH1 0x20 MSTORE PUSH1 0x40 PUSH1 0x0 KECCAK256 DUP4 PUSH1 0x0 MSTORE PUSH1 0x20 MSTORE PUSH1 0x40 PUSH1 0x0 KECCAK256 SWAP2 DUP2 MLOAD DUP4 SSTORE PUSH1 0x20 DUP3 ADD MLOAD PUSH1 0x1 DUP5 ADD SSTORE PUSH1 0x2 DUP4 ADD PUSH4 0xFFFFFFFF PUSH1 0x40 DUP5 ADD MLOAD AND DUP2 SLOAD SWAP1 PUSH24 0xFFFFFFFFFFFFFFFFFFFFFFFFFFFFFFFFFFFFFFFF00000000 PUSH1 0x60 DUP7 ADD MLOAD PUSH1 0x20 SHL AND SWAP1 PUSH32 0xFFFFFFFFFFFFFF00000000000000000000000000000000000000000000000000 PUSH25 0xFF000000000000000000000000000000000000000000000000 PUSH1 0x80 DUP9 ADD MLOAD ISZERO ISZERO PUSH1 0xC0 SHL AND SWAP4 AND OR OR OR SWAP1 SSTORE PUSH1 0xA0 DUP3 ADD MLOAD PUSH1 0x3 DUP5 ADD SSTORE MLOAD DUP1 MLOAD SWAP1 PUSH8 0xFFFFFFFFFFFFFFFF DUP3 GT PUSH2 0x950 JUMPI PUSH2 0x7F1 PUSH1 0x4 DUP6 ADD SLOAD PUSH2 0x1375 JUMP JUMPDEST PUSH1 0x1F DUP2 GT PUSH2 0x9E4 JUMPI JUMPDEST POP PUSH1 0x20 SWAP1 PUSH1 0x1F DUP4 GT PUSH1 0x1 EQ PUSH2 0x971 JUMPI SWAP2 DUP1 PUSH1 0x5 SWAP5 SWAP3 PUSH1 0xE0 SWAP5 PUSH1 0x0 SWAP3 PUSH2 0x966 JUMPI JUMPDEST POP POP DUP2 PUSH1 0x1 SHL SWAP2 PUSH1 0x0 NOT SWAP1 PUSH1 0x3 SHL SHR NOT AND OR PUSH1 0x4 DUP6 ADD SSTORE JUMPDEST ADD MLOAD SWAP2 ADD SSTORE CALLER PUSH1 0x0 MSTORE PUSH1 0x3 PUSH1 0x20 MSTORE PUSH1 0x40 PUSH1 0x0 KECCAK256 SWAP2 DUP3 SLOAD SWAP1 PUSH9 0x10000000000000000 DUP3 LT ISZERO PUSH2 0x950 JUMPI PUSH2 0x86D DUP3 PUSH1 0x20 SWAP6 PUSH1 0x1 DUP7 SWAP6 ADD DUP2 SSTORE PUSH2 0x135D JUMP JUMPDEST DUP2 SLOAD SWAP1 PUSH1 0x3 SHL SWAP1 DUP5 DUP3 SHL SWAP2 PUSH1 0x0 NOT SWAP1 SHL NOT AND OR SWAP1 SSTORE CALLER PUSH1 0x0 MSTORE PUSH1 0x4 DUP5 MSTORE PUSH1 0x40 PUSH1 0x0 KECCAK256 PUSH2 0x899 DUP2 SLOAD PUSH2 0x15AA JUMP JUMPDEST SWAP1 SSTORE CALLER PUSH1 0x0 MSTORE PUSH1 0x4 DUP5 MSTORE PUSH1 0x2 PUSH1 0x40 PUSH1 0x0 KECCAK256 TIMESTAMP PUSH1 0x1 DUP3 ADD SSTORE ADD PUSH1 0x1 PUSH1 0xFF NOT DUP3 SLOAD AND OR SWAP1 SSTORE PUSH32 0xD9943D316E03C76A0277683E5FA4ED2B175E6568C8D3A22D9F0B32092E584A28 PUSH1 0x40 MLOAD DUP6 DUP2 MSTORE DUP3 PUSH1 0x4 ADD CALLDATALOAD DUP7 DUP3 ADD MSTORE DUP3 PUSH1 0x4 ADD CALLDATALOAD PUSH1 0x24 DUP5 ADD PUSH1 0x40 DUP4 ADD CALLDATACOPY PUSH1 0x0 PUSH1 0x40 DUP5 PUSH1 0x4 ADD CALLDATALOAD DUP4 ADD ADD MSTORE PUSH1 0x40 DUP2 CALLER SWAP5 PUSH1 0x1F DUP1 NOT SWAP2 PUSH1 0x4 ADD CALLDATALOAD ADD AND DUP2 ADD SUB ADD SWAP1 LOG3 PUSH1 0x40 MLOAD TIMESTAMP DUP2 MSTORE PUSH32 0xFCFA0761DAB6873023E04C2D8E99CEFDC3D64EE860C8BDF9742211179E723BED DUP4 CALLER SWAP3 LOG2 PUSH1 0x40 MLOAD SWAP1 DUP2 MSTORE RETURN JUMPDEST PUSH4 0x4E487B71 PUSH1 0xE0 SHL PUSH1 0x0 MSTORE PUSH1 0x41 PUSH1 0x4 MSTORE PUSH1 0x24 PUSH1 0x0 REVERT JUMPDEST ADD MLOAD SWAP1 POP DUP9 DUP1 PUSH2 0x81A JUMP JUMPDEST SWAP1 PUSH1 0x1F NOT DUP4 AND SWAP2 PUSH1 0x4 DUP7 ADD PUSH1 0x0 MSTORE PUSH1 0x20 PUSH1 0x0 KECCAK256 SWAP3 PUSH1 0x0 JUMPDEST DUP2 DUP2 LT PUSH2 0x9CC JUMPI POP SWAP3 PUSH1 0x1 SWAP3 DUP6 SWAP3 PUSH1 0xE0 SWAP7 PUSH1 0x5 SWAP9 SWAP7 LT PUSH2 0x9B3 JUMPI JUMPDEST POP POP POP DUP2 SHL ADD PUSH1 0x4 DUP6 ADD SSTORE PUSH2 0x832 JUMP JUMPDEST ADD MLOAD PUSH1 0x0 NOT PUSH1 0xF8 DUP5 PUSH1 0x3 SHL AND SHR NOT AND SWAP1 SSTORE DUP9 DUP1 DUP1 PUSH2 0x9A3 JUMP JUMPDEST SWAP3 SWAP4 PUSH1 0x20 PUSH1 0x1 DUP2 SWAP3 DUP8 DUP7 ADD MLOAD DUP2 SSTORE ADD SWAP6 ADD SWAP4 ADD PUSH2 0x988 JUMP JUMPDEST PUSH1 0x4 DUP6 ADD PUSH1 0x0 MSTORE PUSH1 0x20 PUSH1 0x0 KECCAK256 PUSH1 0x1F DUP5 ADD PUSH1 0x5 SHR DUP2 ADD PUSH1 0x20 DUP6 LT PUSH2 0xA24 JUMPI JUMPDEST PUSH1 0x1F DUP4 ADD PUSH1 0x5 SHR DUP3 ADD DUP2 LT PUSH2 0xA18 JUMPI POP POP PUSH2 0x7FA JUMP JUMPDEST PUSH1 0x0 DUP2 SSTORE PUSH1 0x1 ADD PUSH2 0xA02 JUMP JUMPDEST POP DUP1 PUSH2 0xA02 JUMP JUMPDEST PUSH4 0x4E487B71 PUSH1 0xE0 SHL PUSH1 0x0 MSTORE PUSH1 0x11 PUSH1 0x4 MSTORE PUSH1 0x24 PUSH1 0x0 REVERT JUMPDEST PUSH1 0x64 PUSH1 0x40 MLOAD PUSH3 0x461BCD PUSH1 0xE5 SHL DUP2 MSTORE PUSH1 0x20 PUSH1 0x4 DUP3 ADD MSTORE PUSH1 0xE PUSH1 0x24 DUP3 ADD MSTORE PUSH32 0x496E76616C69642076616C756573000000000000000000000000000000000000 PUSH1 0x44 DUP3 ADD MSTORE REVERT JUMPDEST SWAP1 POP ISZERO ISZERO DUP4 PUSH2 0x5EE JUMP JUMPDEST PUSH1 0x64 PUSH1 0x40 MLOAD PUSH3 0x461BCD PUSH1 0xE5 SHL DUP2 MSTORE PUSH1 0x20 PUSH1 0x4 DUP3 ADD MSTORE PUSH1 0x13 PUSH1 0x24 DUP3 ADD MSTORE PUSH32 0x4173736574206E616D6520726571756972656400000000000000000000000000 PUSH1 0x44 DUP3 ADD MSTORE REVERT JUMPDEST PUSH1 0x64 PUSH1 0x40 MLOAD PUSH3 0x461BCD PUSH1 0xE5 SHL DUP2 MSTORE PUSH1 0x20 PUSH1 0x4 DUP3 ADD MSTORE PUSH1 0x12 PUSH1 0x24 DUP3 ADD MSTORE PUSH32 0x496E76616C6964207269736B206C6576656C0000000000000000000000000000 PUSH1 0x44 DUP3 ADD MSTORE REVERT JUMPDEST PUSH1 0x64 PUSH1 0x40 MLOAD PUSH3 0x461BCD PUSH1 0xE5 SHL DUP2 MSTORE PUSH1 0x20 PUSH1 0x4 DUP3 ADD MSTORE PUSH1 0x1B PUSH1 0x24 DUP3 ADD MSTORE PUSH32 0x496E73756666696369656E74206D616E6167656D656E74206665650000000000 PUSH1 0x44 DUP3 ADD MSTORE REVERT JUMPDEST CALLVALUE PUSH2 0x1C2 JUMPI PUSH1 0x20 CALLDATASIZE PUSH1 0x3 NOT ADD SLT PUSH2 0x1C2 JUMPI PUSH1 0x1 PUSH1 0x1 PUSH1 0xA0 SHL SUB PUSH2 0xB7C PUSH2 0x1347 JUMP JUMPDEST AND PUSH1 0x0 MSTORE PUSH1 0x4 PUSH1 0x20 MSTORE PUSH1 0x40 PUSH1 0x0 KECCAK256 DUP1 SLOAD PUSH2 0x400 PUSH1 0x1 DUP4 ADD SLOAD SWAP3 PUSH1 0x3 PUSH1 0xFF PUSH1 0x2 DUP4 ADD SLOAD AND SWAP2 ADD SLOAD SWAP1 PUSH1 0x40 MLOAD SWAP5 DUP6 SWAP5 DUP6 SWAP1 SWAP5 SWAP4 SWAP3 PUSH1 0x60 SWAP3 PUSH1 0x80 DUP4 ADD SWAP7 DUP4 MSTORE PUSH1 0x20 DUP4 ADD MSTORE ISZERO ISZERO PUSH1 0x40 DUP3 ADD MSTORE ADD MSTORE JUMP JUMPDEST CALLVALUE PUSH2 0x1C2 JUMPI PUSH1 0x0 CALLDATASIZE PUSH1 0x3 NOT ADD SLT PUSH2 0x1C2 JUMPI CALLER PUSH1 0x0 MSTORE PUSH1 0x20 PUSH1 0x3 DUP2 MSTORE PUSH1 0x40 PUSH1 0x0 KECCAK256 PUSH1 0x40 MLOAD DUP1 DUP3 DUP5 DUP3 SWAP5 SLOAD SWAP4 DUP5 DUP2 MSTORE ADD SWAP1 PUSH1 0x0 MSTORE DUP5 PUSH1 0x0 KECCAK256 SWAP3 PUSH1 0x0 JUMPDEST DUP7 DUP3 DUP3 LT PUSH2 0xCF6 JUMPI DUP5 PUSH2 0xC17 DUP2 DUP7 SUB DUP3 PUSH2 0x13E7 JUMP JUMPDEST MLOAD ISZERO PUSH2 0xCB2 JUMPI PUSH1 0x40 MLOAD DUP2 DUP2 ADD SWAP1 PUSH32 0x706F7274666F6C696F5F746F74616C0000000000000000000000000000000000 DUP3 MSTORE CALLER PUSH1 0x60 SHL PUSH1 0x2F DUP3 ADD MSTORE TIMESTAMP PUSH1 0x43 DUP3 ADD MSTORE PUSH1 0x43 DUP2 MSTORE PUSH2 0xC63 DUP2 PUSH2 0x13CB JUMP JUMPDEST MLOAD SWAP1 KECCAK256 CALLER PUSH1 0x0 MSTORE PUSH1 0x4 DUP3 MSTORE PUSH1 0x40 PUSH1 0x0 KECCAK256 DUP2 PUSH1 0x3 DUP3 ADD SSTORE PUSH1 0x1 TIMESTAMP SWAP2 ADD SSTORE PUSH1 0x40 MLOAD DUP2 DUP2 MSTORE PUSH32 0x31DD6318A53D560ABB88A9B47742835216D6941DAE2C856613BD6CEDA1700AD5 DUP4 CALLER SWAP3 LOG2 PUSH1 0x40 MLOAD SWAP1 DUP2 MSTORE RETURN JUMPDEST PUSH1 0x64 SWAP1 PUSH1 0x40 MLOAD SWAP1 PUSH3 0x461BCD PUSH1 0xE5 SHL DUP3 MSTORE PUSH1 0x4 DUP3 ADD MSTORE PUSH1 0x16 PUSH1 0x24 DUP3 ADD MSTORE PUSH32 0x4E6F2061737365747320696E20706F7274666F6C696F00000000000000000000 PUSH1 0x44 DUP3 ADD MSTORE REVERT JUMPDEST DUP6 SLOAD DUP5 MSTORE PUSH1 0x1 SWAP6 DUP7 ADD SWAP6 DUP8 SWAP6 POP SWAP4 ADD SWAP3 ADD PUSH2 0xC02 JUMP JUMPDEST CALLVALUE PUSH2 0x1C2 JUMPI PUSH1 0x0 CALLDATASIZE PUSH1 0x3 NOT ADD SLT PUSH2 0x1C2 JUMPI PUSH1 0x20 PUSH1 0x1 PUSH1 0x1 PUSH1 0xA0 SHL SUB PUSH1 0x0 SLOAD AND PUSH1 0x40 MLOAD SWAP1 DUP2 MSTORE RETURN JUMPDEST CALLVALUE PUSH2 0x1C2 JUMPI PUSH1 0x0 CALLDATASIZE PUSH1 0x3 NOT ADD SLT PUSH2 0x1C2 JUMPI CALLER PUSH1 0x0 MSTORE PUSH1 0x20 PUSH1 0x3 DUP2 MSTORE PUSH1 0x40 PUSH1 0x0 KECCAK256 PUSH1 0x40 MLOAD SWAP1 DUP2 DUP4 DUP3 SLOAD SWAP2 DUP3 DUP2 MSTORE ADD SWAP1 DUP2 SWAP3 PUSH1 0x0 MSTORE DUP5 PUSH1 0x0 KECCAK256 SWAP1 PUSH1 0x0 JUMPDEST DUP7 DUP3 DUP3 LT PUSH2 0xDC4 JUMPI DUP7 DUP7 PUSH2 0xD84 DUP3 DUP9 SUB DUP4 PUSH2 0x13E7 JUMP JUMPDEST PUSH1 0x40 MLOAD SWAP3 DUP4 SWAP3 DUP2 DUP5 ADD SWAP1 DUP3 DUP6 MSTORE MLOAD DUP1 SWAP2 MSTORE PUSH1 0x40 DUP5 ADD SWAP3 SWAP2 PUSH1 0x0 JUMPDEST DUP3 DUP2 LT PUSH2 0xDAD JUMPI POP POP POP POP SUB SWAP1 RETURN JUMPDEST DUP4 MLOAD DUP6 MSTORE DUP7 SWAP6 POP SWAP4 DUP2 ADD SWAP4 SWAP3 DUP2 ADD SWAP3 PUSH1 0x1 ADD PUSH2 0xD9E JUMP JUMPDEST DUP4 SLOAD DUP6 MSTORE SWAP1 SWAP4 ADD SWAP3 PUSH1 0x1 SWAP3 DUP4 ADD SWAP3 ADD PUSH2 0xD6E JUMP JUMPDEST CALLVALUE PUSH2 0x1C2 JUMPI PUSH1 0x0 CALLDATASIZE PUSH1 0x3 NOT ADD SLT PUSH2 0x1C2 JUMPI PUSH1 0x20 SELFBALANCE PUSH1 0x40 MLOAD SWAP1 DUP2 MSTORE RETURN JUMPDEST CALLVALUE PUSH2 0x1C2 JUMPI PUSH1 0x20 DUP1 PUSH1 0x3 NOT CALLDATASIZE ADD SLT PUSH2 0x1C2 JUMPI PUSH1 0x4 CALLDATALOAD CALLER PUSH1 0x0 MSTORE PUSH1 0x2 DUP3 MSTORE PUSH1 0x40 PUSH1 0x0 KECCAK256 DUP2 PUSH1 0x0 MSTORE DUP3 MSTORE PUSH1 0x40 PUSH1 0x0 KECCAK256 SWAP1 PUSH1 0x2 DUP3 ADD SLOAD PUSH1 0xFF PUSH1 0x1 PUSH1 0x1 PUSH1 0xA0 SHL SUB SWAP2 PUSH2 0xE41 CALLER DUP5 DUP4 DUP10 SHR AND EQ PUSH2 0x155F JUMP JUMPDEST PUSH1 0xC0 SHR AND ISZERO PUSH2 0xF46 JUMPI PUSH1 0x7 SLOAD SWAP3 PUSH2 0xE57 DUP5 PUSH2 0x15AA JUMP JUMPDEST PUSH1 0x7 SSTORE PUSH1 0x40 MLOAD SWAP1 PUSH1 0x80 DUP3 ADD SWAP3 DUP3 DUP5 LT PUSH8 0xFFFFFFFFFFFFFFFF DUP6 GT OR PUSH2 0x950 JUMPI PUSH1 0x3 DUP8 SWAP4 PUSH32 0xC34B0D3573D005C8257E5DBAF68BEC7EFABF8C46B90B65FDAE74D88FBEF492DC SWAP6 PUSH1 0x40 MSTORE DUP7 DUP2 MSTORE DUP5 DUP2 ADD CALLER DUP2 MSTORE PUSH1 0x40 DUP3 ADD SWAP1 TIMESTAMP DUP3 MSTORE PUSH1 0x60 DUP4 ADD SWAP5 PUSH1 0x0 DUP7 MSTORE DUP11 PUSH1 0x0 MSTORE PUSH1 0x6 DUP9 MSTORE PUSH1 0x40 PUSH1 0x0 KECCAK256 SWAP4 MLOAD DUP5 SSTORE PUSH1 0x1 DUP5 ADD SWAP2 MLOAD AND PUSH32 0xFFFFFFFFFFFFFFFFFFFFFFFF0000000000000000000000000000000000000000 DUP3 SLOAD AND OR SWAP1 SSTORE MLOAD PUSH1 0x2 DUP3 ADD SSTORE ADD SWAP1 MLOAD ISZERO ISZERO PUSH1 0xFF DUP1 NOT DUP4 SLOAD AND SWAP2 AND OR SWAP1 SSTORE PUSH1 0x40 MLOAD SWAP1 DUP5 DUP7 PUSH32 0x81BCA54E6C48C44EC959A5581796BE73005CBDE51156A29BAE607F52E9BAA16C PUSH1 0x0 DUP1 LOG3 SLOAD DUP2 MSTORE LOG2 PUSH1 0x40 MLOAD SWAP1 DUP2 MSTORE RETURN JUMPDEST PUSH1 0x64 DUP5 PUSH1 0x40 MLOAD SWAP1 PUSH3 0x461BCD PUSH1 0xE5 SHL DUP3 MSTORE PUSH1 0x4 DUP3 ADD MSTORE PUSH1 0x13 PUSH1 0x24 DUP3 ADD MSTORE PUSH32 0x4173736574206973206E6F742061637469766500000000000000000000000000 PUSH1 0x44 DUP3 ADD MSTORE REVERT JUMPDEST CALLVALUE PUSH2 0x1C2 JUMPI PUSH1 0x40 CALLDATASIZE PUSH1 0x3 NOT ADD SLT PUSH2 0x1C2 JUMPI PUSH2 0xFA3 PUSH2 0x1347 JUMP JUMPDEST PUSH1 0x1 PUSH1 0x1 PUSH1 0xA0 SHL SUB DUP1 SWAP2 AND PUSH1 0x0 MSTORE PUSH1 0x2 PUSH1 0x20 MSTORE PUSH1 0x40 PUSH1 0x0 KECCAK256 PUSH1 0x24 CALLDATALOAD PUSH1 0x0 MSTORE PUSH1 0x20 MSTORE PUSH1 0x40 PUSH1 0x0 KECCAK256 DUP1 SLOAD PUSH2 0x1038 PUSH1 0x1 DUP4 ADD SLOAD SWAP3 PUSH1 0x2 DUP2 ADD SLOAD SWAP3 PUSH1 0x3 DUP3 ADD SLOAD PUSH1 0xFF PUSH1 0x5 PUSH2 0xFEF PUSH1 0x4 DUP7 ADD PUSH2 0x1409 JUMP JUMPDEST SWAP5 ADD SLOAD SWAP6 PUSH1 0x40 MLOAD SWAP9 DUP10 SWAP9 PUSH2 0x100 SWAP6 DUP11 MSTORE PUSH1 0x20 DUP11 ADD MSTORE PUSH4 0xFFFFFFFF DUP3 AND PUSH1 0x40 DUP11 ADD MSTORE DUP2 PUSH1 0x20 SHR AND PUSH1 0x60 DUP10 ADD MSTORE PUSH1 0xC0 SHR AND ISZERO ISZERO PUSH1 0x80 DUP8 ADD MSTORE PUSH1 0xA0 DUP7 ADD MSTORE DUP1 PUSH1 0xC0 DUP7 ADD MSTORE DUP5 ADD SWAP1 PUSH2 0x14AE JUMP JUMPDEST SWAP1 PUSH1 0xE0 DUP4 ADD MSTORE SUB SWAP1 RETURN JUMPDEST CALLVALUE PUSH2 0x1C2 JUMPI PUSH1 0x0 CALLDATASIZE PUSH1 0x3 NOT ADD SLT PUSH2 0x1C2 JUMPI PUSH1 0x20 PUSH1 0x40 MLOAD DUP2 DUP2 ADD SWAP1 TIMESTAMP DUP3 MSTORE PREVRANDAO PUSH1 0x40 DUP3 ADD MSTORE CALLER PUSH1 0x60 SHL PUSH1 0x60 DUP3 ADD MSTORE ADDRESS PUSH1 0x60 SHL PUSH1 0x74 DUP3 ADD MSTORE PUSH1 0x68 DUP2 MSTORE PUSH2 0x1084 DUP2 PUSH2 0x13AF JUMP JUMPDEST MLOAD SWAP1 KECCAK256 PUSH1 0x40 MLOAD SWAP1 DUP2 MSTORE RETURN JUMPDEST CALLVALUE PUSH2 0x1C2 JUMPI PUSH1 0x0 CALLDATASIZE PUSH1 0x3 NOT ADD SLT PUSH2 0x1C2 JUMPI PUSH1 0x20 PUSH1 0x40 MLOAD PUSH3 0xF4240 DUP2 MSTORE RETURN JUMPDEST CALLVALUE PUSH2 0x1C2 JUMPI PUSH1 0x0 CALLDATASIZE PUSH1 0x3 NOT ADD SLT PUSH2 0x1C2 JUMPI PUSH1 0x0 DUP1 DUP1 DUP1 PUSH1 0x1 PUSH1 0x1 PUSH1 0xA0 SHL SUB DUP2 SLOAD AND PUSH2 0x10D9 DUP2 CALLER EQ PUSH2 0x14EE JUMP JUMPDEST SELFBALANCE SWAP1 DUP3 DUP3 ISZERO PUSH2 0x10F7 JUMPI JUMPDEST CALL ISZERO PUSH2 0x10EB JUMPI STOP JUMPDEST PUSH1 0x40 MLOAD RETURNDATASIZE PUSH1 0x0 DUP3 RETURNDATACOPY RETURNDATASIZE SWAP1 REVERT JUMPDEST POP PUSH2 0x8FC PUSH2 0x10E3 JUMP JUMPDEST CALLVALUE PUSH2 0x1C2 JUMPI PUSH1 0x40 CALLDATASIZE PUSH1 0x3 NOT ADD SLT PUSH2 0x1C2 JUMPI PUSH2 0x1119 PUSH2 0x1347 JUMP JUMPDEST PUSH1 0x1 PUSH1 0x1 PUSH1 0xA0 SHL SUB PUSH1 0x24 CALLDATALOAD SWAP2 AND PUSH1 0x0 MSTORE PUSH1 0x3 PUSH1 0x20 MSTORE PUSH1 0x40 PUSH1 0x0 KECCAK256 DUP1 SLOAD DUP3 LT ISZERO PUSH2 0x1C2 JUMPI PUSH1 0x20 SWAP2 PUSH2 0x1148 SWAP2 PUSH2 0x135D JUMP JUMPDEST SWAP1 SLOAD SWAP1 PUSH1 0x3 SHL SHR PUSH1 0x40 MLOAD SWAP1 DUP2 MSTORE RETURN JUMPDEST CALLVALUE PUSH2 0x1C2 JUMPI PUSH1 0x20 DUP1 PUSH1 0x3 NOT CALLDATASIZE ADD SLT PUSH2 0x1C2 JUMPI CALLER PUSH1 0x0 MSTORE PUSH1 0x2 DUP2 MSTORE PUSH1 0x40 PUSH1 0x0 KECCAK256 PUSH1 0x4 CALLDATALOAD PUSH1 0x0 MSTORE DUP2 MSTORE PUSH1 0x2 PUSH1 0x40 PUSH1 0x0 KECCAK256 ADD DUP1 SLOAD PUSH2 0x119E CALLER PUSH1 0x1 PUSH1 0x1 PUSH1 0xA0 SHL SUB DUP4 DUP7 SHR AND EQ PUSH2 0x155F JUMP JUMPDEST PUSH1 0xFF DUP2 PUSH1 0xC0 SHR AND ISZERO PUSH2 0x1228 JUMPI PUSH32 0xFFFFFFFFFFFFFF00FFFFFFFFFFFFFFFFFFFFFFFFFFFFFFFFFFFFFFFFFFFFFFFF AND SWAP1 SSTORE CALLER PUSH1 0x0 MSTORE PUSH1 0x4 DUP2 MSTORE PUSH1 0x40 PUSH1 0x0 KECCAK256 DUP1 SLOAD DUP1 ISZERO PUSH2 0xA2B JUMPI PUSH1 0x0 NOT ADD SWAP1 SSTORE CALLER PUSH1 0x0 MSTORE PUSH1 0x4 DUP2 MSTORE TIMESTAMP PUSH1 0x1 PUSH1 0x40 PUSH1 0x0 KECCAK256 ADD SSTORE PUSH32 0xFCFA0761DAB6873023E04C2D8E99CEFDC3D64EE860C8BDF9742211179E723BED PUSH1 0x40 MLOAD SWAP2 TIMESTAMP DUP4 MSTORE CALLER SWAP3 LOG2 STOP JUMPDEST PUSH1 0x64 DUP4 PUSH1 0x40 MLOAD SWAP1 PUSH3 0x461BCD PUSH1 0xE5 SHL DUP3 MSTORE PUSH1 0x4 DUP3 ADD MSTORE PUSH1 0x16 PUSH1 0x24 DUP3 ADD MSTORE PUSH32 0x417373657420616C726561647920696E61637469766500000000000000000000 PUSH1 0x44 DUP3 ADD MSTORE REVERT JUMPDEST CALLVALUE PUSH2 0x1C2 JUMPI PUSH1 0x0 CALLDATASIZE PUSH1 0x3 NOT ADD SLT PUSH2 0x1C2 JUMPI CALLER PUSH1 0x0 MSTORE PUSH1 0x3 PUSH1 0x20 MSTORE PUSH1 0x20 PUSH1 0x40 PUSH1 0x0 KECCAK256 SLOAD PUSH1 0x40 MLOAD SWAP1 DUP2 MSTORE RETURN JUMPDEST CALLVALUE PUSH2 0x1C2 JUMPI PUSH1 0x20 CALLDATASIZE PUSH1 0x3 NOT ADD SLT PUSH2 0x1C2 JUMPI PUSH1 0x1 PUSH1 0x1 PUSH1 0xA0 SHL SUB PUSH2 0x12B7 PUSH2 0x1347 JUMP JUMPDEST AND PUSH1 0x0 MSTORE PUSH1 0x5 PUSH1 0x20 MSTORE PUSH1 0x20 PUSH1 0xFF PUSH1 0x40 PUSH1 0x0 KECCAK256 SLOAD AND PUSH1 0x40 MLOAD SWAP1 ISZERO ISZERO DUP2 MSTORE RETURN JUMPDEST CALLVALUE PUSH2 0x1C2 JUMPI PUSH1 0x20 CALLDATASIZE PUSH1 0x3 NOT ADD SLT PUSH2 0x1C2 JUMPI PUSH2 0x12EE PUSH2 0x1347 JUMP JUMPDEST PUSH1 0x1 PUSH1 0x1 PUSH1 0xA0 SHL SUB SWAP1 PUSH2 0x1306 DUP3 PUSH1 0x0 SLOAD AND CALLER EQ PUSH2 0x14EE JUMP JUMPDEST AND DUP1 PUSH1 0x0 MSTORE PUSH1 0x5 PUSH1 0x20 MSTORE PUSH1 0x40 PUSH1 0x0 KECCAK256 PUSH1 0x1 PUSH1 0xFF NOT DUP3 SLOAD AND OR SWAP1 SSTORE PUSH32 0x6983C15B8045FF4E0535C5593BFEB156F792A6C4C1958885852B6538BB54439 PUSH1 0x0 DUP1 LOG2 STOP JUMPDEST PUSH1 0x4 CALLDATALOAD SWAP1 PUSH1 0x1 PUSH1 0x1 PUSH1 0xA0 SHL SUB DUP3 AND DUP3 SUB PUSH2 0x1C2 JUMPI JUMP JUMPDEST DUP1 SLOAD DUP3 LT ISZERO PUSH2 0x345 JUMPI PUSH1 0x0 MSTORE PUSH1 0x20 PUSH1 0x0 KECCAK256 ADD SWAP1 PUSH1 0x0 SWAP1 JUMP JUMPDEST SWAP1 PUSH1 0x1 DUP3 DUP2 SHR SWAP3 AND DUP1 ISZERO PUSH2 0x13A5 JUMPI JUMPDEST PUSH1 0x20 DUP4 LT EQ PUSH2 0x138F JUMPI JUMP JUMPDEST PUSH4 0x4E487B71 PUSH1 0xE0 SHL PUSH1 0x0 MSTORE PUSH1 0x22 PUSH1 0x4 MSTORE PUSH1 0x24 PUSH1 0x0 REVERT JUMPDEST SWAP2 PUSH1 0x7F AND SWAP2 PUSH2 0x1384 JUMP JUMPDEST PUSH1 0xA0 DUP2 ADD SWAP1 DUP2 LT PUSH8 0xFFFFFFFFFFFFFFFF DUP3 GT OR PUSH2 0x950 JUMPI PUSH1 0x40 MSTORE JUMP JUMPDEST PUSH1 0x80 DUP2 ADD SWAP1 DUP2 LT PUSH8 0xFFFFFFFFFFFFFFFF DUP3 GT OR PUSH2 0x950 JUMPI PUSH1 0x40 MSTORE JUMP JUMPDEST SWAP1 PUSH1 0x1F DUP1 NOT SWAP2 ADD AND DUP2 ADD SWAP1 DUP2 LT PUSH8 0xFFFFFFFFFFFFFFFF DUP3 GT OR PUSH2 0x950 JUMPI PUSH1 0x40 MSTORE JUMP JUMPDEST SWAP1 PUSH1 0x40 MLOAD SWAP2 DUP3 PUSH1 0x0 DUP3 SLOAD PUSH2 0x141C DUP2 PUSH2 0x1375 JUMP JUMPDEST SWAP1 DUP2 DUP5 MSTORE PUSH1 0x20 SWAP5 PUSH1 0x1 SWAP2 PUSH1 0x1 DUP2 AND SWAP1 DUP2 PUSH1 0x0 EQ PUSH2 0x148C JUMPI POP PUSH1 0x1 EQ PUSH2 0x144D JUMPI JUMPDEST POP POP POP PUSH2 0x144B SWAP3 POP SUB DUP4 PUSH2 0x13E7 JUMP JUMPDEST JUMP JUMPDEST PUSH1 0x0 SWAP1 DUP2 MSTORE DUP6 DUP2 KECCAK256 SWAP6 SWAP4 POP SWAP2 SWAP1 JUMPDEST DUP2 DUP4 LT PUSH2 0x1474 JUMPI POP POP PUSH2 0x144B SWAP4 POP DUP3 ADD ADD CODESIZE DUP1 DUP1 PUSH2 0x143C JUMP JUMPDEST DUP6 SLOAD DUP9 DUP5 ADD DUP6 ADD MSTORE SWAP5 DUP6 ADD SWAP5 DUP8 SWAP5 POP SWAP2 DUP4 ADD SWAP2 PUSH2 0x145B JUMP JUMPDEST SWAP3 POP POP POP PUSH2 0x144B SWAP5 SWAP3 POP PUSH1 0xFF NOT AND DUP3 DUP5 ADD MSTORE ISZERO ISZERO PUSH1 0x5 SHL DUP3 ADD ADD CODESIZE DUP1 DUP1 PUSH2 0x143C JUMP JUMPDEST SWAP2 SWAP1 DUP3 MLOAD SWAP3 DUP4 DUP3 MSTORE PUSH1 0x0 JUMPDEST DUP5 DUP2 LT PUSH2 0x14DA JUMPI POP POP DUP3 PUSH1 0x0 PUSH1 0x20 DUP1 SWAP5 SWAP6 DUP5 ADD ADD MSTORE PUSH1 0x1F DUP1 NOT SWAP2 ADD AND ADD ADD SWAP1 JUMP JUMPDEST PUSH1 0x20 DUP2 DUP4 ADD DUP2 ADD MLOAD DUP5 DUP4 ADD DUP3 ADD MSTORE ADD PUSH2 0x14B9 JUMP JUMPDEST ISZERO PUSH2 0x14F5 JUMPI JUMP JUMPDEST PUSH1 0x84 PUSH1 0x40 MLOAD PUSH3 0x461BCD PUSH1 0xE5 SHL DUP2 MSTORE PUSH1 0x20 PUSH1 0x4 DUP3 ADD MSTORE PUSH1 0x21 PUSH1 0x24 DUP3 ADD MSTORE PUSH32 0x4F6E6C79206F776E65722063616E2063616C6C20746869732066756E6374696F PUSH1 0x44 DUP3 ADD MSTORE PUSH32 0x6E00000000000000000000000000000000000000000000000000000000000000 PUSH1 0x64 DUP3 ADD MSTORE REVERT JUMPDEST ISZERO PUSH2 0x1566 JUMPI JUMP JUMPDEST PUSH1 0x64 PUSH1 0x40 MLOAD PUSH3 0x461BCD PUSH1 0xE5 SHL DUP2 MSTORE PUSH1 0x20 PUSH1 0x4 DUP3 ADD MSTORE PUSH1 0x1C PUSH1 0x24 DUP3 ADD MSTORE PUSH32 0x4173736574206E6F7420666F756E64206F72206E6F74206F776E656400000000 PUSH1 0x44 DUP3 ADD MSTORE REVERT JUMPDEST PUSH1 0x0 NOT DUP2 EQ PUSH2 0xA2B JUMPI PUSH1 0x1 ADD SWAP1 JUMP JUMPDEST SWAP2 PUSH1 0x40 MLOAD SWAP2 PUSH32 0xFFFFFFFFFFFFFFFF000000000000000000000000000000000000000000000000 PUSH1 0x20 DUP5 ADD SWAP5 PUSH1 0xC0 SHL AND DUP5 MSTORE PUSH12 0xFFFFFFFFFFFFFFFFFFFFFFFF NOT SWAP1 PUSH1 0x60 SHL AND PUSH1 0x28 DUP4 ADD MSTORE PUSH1 0x3C DUP3 ADD MSTORE TIMESTAMP PUSH1 0x5C DUP3 ADD MSTORE ADDRESS PUSH1 0x60 SHL PUSH1 0x7C DUP3 ADD MSTORE PUSH1 0x70 DUP2 MSTORE PUSH2 0x1623 DUP2 PUSH2 0x13AF JUMP JUMPDEST MLOAD SWAP1 KECCAK256 SWAP1 JUMP INVALID LOG2 PUSH5 0x6970667358 0x22 SLT KECCAK256 0xE6 0x28 PC 0xAA SLOAD SMOD 0xE1 0xD4 TIMESTAMP KECCAK256 CALLDATASIZE 0xEC 0xD1 DUP14 TIMESTAMP 0xC3 SWAP1 0xC5 AND 0xED 0xB2 DUP5 0x2F 0x2C BLOCKHASH CREATE 0xA8 TSTORE 0x2B CALLVALUE PUSH4 0xCB64736F PUSH13 0x63430008180033000000000000 "},"methodIdentifiers":{"MANAGEMENT_FEE()":"5f1554e3","addAuthorizedManager(address)":"00497e76","addEncryptedAsset(uint64,uint64,string,uint32)":"b4b62191","authorizedManagers(address)":"0a3cb21b","calculateEncryptedPortfolioValue()":"9524c5e3","compareEncryptedAssetValues(uint256,uint256)":"b9c9f396","deactivateAsset(uint256)":"319af5e0","decryptionRequests(uint256)":"d3722d01","generateRandomEncryptedValue()":"689ef198","getAssetInfo(uint256)":"f637d950","getContractBalance()":"6f9fb98a","getDecryptionRequest(uint256)":"77a5ebbd","getEncryptedAssetValues(uint256)":"caeb483d","getMyAssetCount()":"171abbeb","getMyAssetIds()":"89ddd71e","getPortfolioRiskDistribution()":"da63dab7","getPortfolioStats(address)":"9b8406d3","owner()":"8da5cb5b","portfolioStats(address)":"1d87b4ee","removeAuthorizedManager(address)":"dd99d123","requestAssetDecryption(uint256)":"6e481db3","userAssetIds(address,uint256)":"37732fa4","userAssets(address,uint256)":"6a8a69aa","withdrawFees()":"476343ee"}}}}}