{
  "_format": "hh-sol-artifact-1",
  "contractName": "ConfidentialPortfolio",
  "sourceName": "contracts/ConfidentialPortfolio.sol",
  "abi": [
    {
      "inputs": [],
      "stateMutability": "nonpayable",
      "type": "constructor"
    },
    {
      "anonymous": false,
      "inputs": [
        {
          "indexed": true,
          "internalType": "address",
          "name": "investor",
          "type": "address"
        },
        {
          "indexed": true,
          "internalType": "uint256",
          "name": "assetId",
          "type": "uint256"
        },
        {
          "indexed": false,
          "internalType": "string",
          "name": "assetName",
          "type": "string"
        }
      ],
      "name": "AssetAdded",
      "type": "event"
    },
    {
      "anonymous": false,
      "inputs": [
        {
          "indexed": true,
          "internalType": "address",
          "name": "manager",
          "type": "address"
        }
      ],
      "name": "AuthorizedManagerAdded",
      "type": "event"
    },
    {
      "anonymous": false,
      "inputs": [
        {
          "indexed": true,
          "internalType": "uint256",
          "name": "requestId",
          "type": "uint256"
        },
        {
          "indexed": true,
          "internalType": "uint256",
          "name": "assetId",
          "type": "uint256"
        }
      ],
      "name": "DecryptionRequested",
      "type": "event"
    },
    {
      "anonymous": false,
      "inputs": [
        {
          "indexed": true,
          "internalType": "address",
          "name": "investor",
          "type": "address"
        },
        {
          "indexed": false,
          "internalType": "uint256",
          "name": "timestamp",
          "type": "uint256"
        }
      ],
      "name": "PortfolioUpdated",
      "type": "event"
    },
    {
      "anonymous": false,
      "inputs": [
        {
          "indexed": true,
          "internalType": "address",
          "name": "user",
          "type": "address"
        },
        {
          "indexed": false,
          "internalType": "bytes32",
          "name": "encryptedTotal",
          "type": "bytes32"
        }
      ],
      "name": "PortfolioValueCalculated",
      "type": "event"
    },
    {
      "anonymous": false,
      "inputs": [
        {
          "indexed": true,
          "internalType": "uint256",
          "name": "assetId",
          "type": "uint256"
        },
        {
          "indexed": false,
          "internalType": "bytes32",
          "name": "encryptedValue",
          "type": "bytes32"
        }
      ],
      "name": "ValueRevealed",
      "type": "event"
    },
    {
      "inputs": [],
      "name": "MANAGEMENT_FEE",
      "outputs": [
        {
          "internalType": "uint256",
          "name": "",
          "type": "uint256"
        }
      ],
      "stateMutability": "view",
      "type": "function"
    },
    {
      "inputs": [
        {
          "internalType": "address",
          "name": "manager",
          "type": "address"
        }
      ],
      "name": "addAuthorizedManager",
      "outputs": [],
      "stateMutability": "nonpayable",
      "type": "function"
    },
    {
      "inputs": [
        {
          "internalType": "uint64",
          "name": "_value",
          "type": "uint64"
        },
        {
          "internalType": "uint64",
          "name": "_quantity",
          "type": "uint64"
        },
        {
          "internalType": "string",
          "name": "_assetName",
          "type": "string"
        },
        {
          "internalType": "uint32",
          "name": "_riskLevel",
          "type": "uint32"
        }
      ],
      "name": "addEncryptedAsset",
      "outputs": [
        {
          "internalType": "uint256",
          "name": "assetId",
          "type": "uint256"
        }
      ],
      "stateMutability": "payable",
      "type": "function"
    },
    {
      "inputs": [
        {
          "internalType": "address",
          "name": "",
          "type": "address"
        }
      ],
      "name": "authorizedManagers",
      "outputs": [
        {
          "internalType": "bool",
          "name": "",
          "type": "bool"
        }
      ],
      "stateMutability": "view",
      "type": "function"
    },
    {
      "inputs": [],
      "name": "calculateEncryptedPortfolioValue",
      "outputs": [
        {
          "internalType": "bytes32",
          "name": "encryptedTotal",
          "type": "bytes32"
        }
      ],
      "stateMutability": "nonpayable",
      "type": "function"
    },
    {
      "inputs": [
        {
          "internalType": "uint256",
          "name": "assetId1",
          "type": "uint256"
        },
        {
          "internalType": "uint256",
          "name": "assetId2",
          "type": "uint256"
        }
      ],
      "name": "compareEncryptedAssetValues",
      "outputs": [
        {
          "internalType": "bool",
          "name": "",
          "type": "bool"
        }
      ],
      "stateMutability": "view",
      "type": "function"
    },
    {
      "inputs": [
        {
          "internalType": "uint256",
          "name": "assetId",
          "type": "uint256"
        }
      ],
      "name": "deactivateAsset",
      "outputs": [],
      "stateMutability": "nonpayable",
      "type": "function"
    },
    {
      "inputs": [
        {
          "internalType": "uint256",
          "name": "",
          "type": "uint256"
        }
      ],
      "name": "decryptionRequests",
      "outputs": [
        {
          "internalType": "uint256",
          "name": "assetId",
          "type": "uint256"
        },
        {
          "internalType": "address",
          "name": "requester",
          "type": "address"
        },
        {
          "internalType": "uint256",
          "name": "timestamp",
          "type": "uint256"
        },
        {
          "internalType": "bool",
          "name": "processed",
          "type": "bool"
        }
      ],
      "stateMutability": "view",
      "type": "function"
    },
    {
      "inputs": [],
      "name": "generateRandomEncryptedValue",
      "outputs": [
        {
          "internalType": "bytes32",
          "name": "",
          "type": "bytes32"
        }
      ],
      "stateMutability": "view",
      "type": "function"
    },
    {
      "inputs": [
        {
          "internalType": "uint256",
          "name": "assetId",
          "type": "uint256"
        }
      ],
      "name": "getAssetInfo",
      "outputs": [
        {
          "internalType": "string",
          "name": "assetName",
          "type": "string"
        },
        {
          "internalType": "uint32",
          "name": "riskLevel",
          "type": "uint32"
        },
        {
          "internalType": "bool",
          "name": "active",
          "type": "bool"
        },
        {
          "internalType": "uint256",
          "name": "timestamp",
          "type": "uint256"
        },
        {
          "internalType": "address",
          "name": "assetOwner",
          "type": "address"
        }
      ],
      "stateMutability": "view",
      "type": "function"
    },
    {
      "inputs": [],
      "name": "getContractBalance",
      "outputs": [
        {
          "internalType": "uint256",
          "name": "",
          "type": "uint256"
        }
      ],
      "stateMutability": "view",
      "type": "function"
    },
    {
      "inputs": [
        {
          "internalType": "uint256",
          "name": "requestId",
          "type": "uint256"
        }
      ],
      "name": "getDecryptionRequest",
      "outputs": [
        {
          "internalType": "uint256",
          "name": "assetId",
          "type": "uint256"
        },
        {
          "internalType": "address",
          "name": "requester",
          "type": "address"
        },
        {
          "internalType": "uint256",
          "name": "timestamp",
          "type": "uint256"
        },
        {
          "internalType": "bool",
          "name": "processed",
          "type": "bool"
        }
      ],
      "stateMutability": "view",
      "type": "function"
    },
    {
      "inputs": [
        {
          "internalType": "uint256",
          "name": "assetId",
          "type": "uint256"
        }
      ],
      "name": "getEncryptedAssetValues",
      "outputs": [
        {
          "internalType": "bytes32",
          "name": "encryptedValue",
          "type": "bytes32"
        },
        {
          "internalType": "bytes32",
          "name": "encryptedQuantity",
          "type": "bytes32"
        },
        {
          "internalType": "bytes32",
          "name": "valueHash",
          "type": "bytes32"
        }
      ],
      "stateMutability": "view",
      "type": "function"
    },
    {
      "inputs": [],
      "name": "getMyAssetCount",
      "outputs": [
        {
          "internalType": "uint256",
          "name": "",
          "type": "uint256"
        }
      ],
      "stateMutability": "view",
      "type": "function"
    },
    {
      "inputs": [],
      "name": "getMyAssetIds",
      "outputs": [
        {
          "internalType": "uint256[]",
          "name": "",
          "type": "uint256[]"
        }
      ],
      "stateMutability": "view",
      "type": "function"
    },
    {
      "inputs": [],
      "name": "getPortfolioRiskDistribution",
      "outputs": [
        {
          "internalType": "uint256",
          "name": "lowRisk",
          "type": "uint256"
        },
        {
          "internalType": "uint256",
          "name": "mediumRisk",
          "type": "uint256"
        },
        {
          "internalType": "uint256",
          "name": "highRisk",
          "type": "uint256"
        },
        {
          "internalType": "uint256",
          "name": "veryHighRisk",
          "type": "uint256"
        }
      ],
      "stateMutability": "view",
      "type": "function"
    },
    {
      "inputs": [
        {
          "internalType": "address",
          "name": "user",
          "type": "address"
        }
      ],
      "name": "getPortfolioStats",
      "outputs": [
        {
          "internalType": "uint256",
          "name": "totalAssets",
          "type": "uint256"
        },
        {
          "internalType": "uint256",
          "name": "lastUpdate",
          "type": "uint256"
        },
        {
          "internalType": "bool",
          "name": "hasAssets",
          "type": "bool"
        },
        {
          "internalType": "bytes32",
          "name": "totalValueHash",
          "type": "bytes32"
        }
      ],
      "stateMutability": "view",
      "type": "function"
    },
    {
      "inputs": [],
      "name": "owner",
      "outputs": [
        {
          "internalType": "address",
          "name": "",
          "type": "address"
        }
      ],
      "stateMutability": "view",
      "type": "function"
    },
    {
      "inputs": [
        {
          "internalType": "address",
          "name": "",
          "type": "address"
        }
      ],
      "name": "portfolioStats",
      "outputs": [
        {
          "internalType": "uint256",
          "name": "totalAssets",
          "type": "uint256"
        },
        {
          "internalType": "uint256",
          "name": "lastUpdate",
          "type": "uint256"
        },
        {
          "internalType": "bool",
          "name": "hasAssets",
          "type": "bool"
        },
        {
          "internalType": "bytes32",
          "name": "totalValueHash",
          "type": "bytes32"
        }
      ],
      "stateMutability": "view",
      "type": "function"
    },
    {
      "inputs": [
        {
          "internalType": "address",
          "name": "manager",
          "type": "address"
        }
      ],
      "name": "removeAuthorizedManager",
      "outputs": [],
      "stateMutability": "nonpayable",
      "type": "function"
    },
    {
      "inputs": [
        {
          "internalType": "uint256",
          "name": "assetId",
          "type": "uint256"
        }
      ],
      "name": "requestAssetDecryption",
      "outputs": [
        {
          "internalType": "uint256",
          "name": "requestId",
          "type": "uint256"
        }
      ],
      "stateMutability": "nonpayable",
      "type": "function"
    },
    {
      "inputs": [
        {
          "internalType": "address",
          "name": "",
          "type": "address"
        },
        {
          "internalType": "uint256",
          "name": "",
          "type": "uint256"
        }
      ],
      "name": "userAssetIds",
      "outputs": [
        {
          "internalType": "uint256",
          "name": "",
          "type": "uint256"
        }
      ],
      "stateMutability": "view",
      "type": "function"
    },
    {
      "inputs": [
        {
          "internalType": "address",
          "name": "",
          "type": "address"
        },
        {
          "internalType": "uint256",
          "name": "",
          "type": "uint256"
        }
      ],
      "name": "userAssets",
      "outputs": [
        {
          "internalType": "bytes32",
          "name": "encryptedValue",
          "type": "bytes32"
        },
        {
          "internalType": "bytes32",
          "name": "encryptedQuantity",
          "type": "bytes32"
        },
        {
          "internalType": "uint32",
          "name": "riskLevel",
          "type": "uint32"
        },
        {
          "internalType": "address",
          "name": "owner",
          "type": "address"
        },
        {
          "internalType": "bool",
          "name": "active",
          "type": "bool"
        },
        {
          "internalType": "uint256",
          "name": "timestamp",
          "type": "uint256"
        },
        {
          "internalType": "string",
          "name": "assetName",
          "type": "string"
        },
        {
          "internalType": "bytes32",
          "name": "valueHash",
          "type": "bytes32"
        }
      ],
      "stateMutability": "view",
      "type": "function"
    },
    {
      "inputs": [],
      "name": "withdrawFees",
      "outputs": [],
      "stateMutability": "nonpayable",
      "type": "function"
    },
    {
      "stateMutability": "payable",
      "type": "receive"
    }
  ],
  "bytecode": "0x6080806040523461004957600080546001600160a01b0319163390811782558152600560205260409020805460ff1916600190811790915580805560075561165f908161004f8239f35b600080fdfe6080604052600436101561001b575b361561001957600080fd5b005b60003560e01c8062497e76146112d55780630a3cb21b14611296578063171abbeb1461126c5780631d87b4ee14610b5b578063319af5e01461115757806337732fa414611100578063476343ee146110ad5780635f1554e31461108f578063689ef198146110425780636a8a69aa14610f8a5780636e481db314610df45780636f9fb98a14610dd857806377a5ebbd1461038d57806389ddd71e14610d335780638da5cb5b14610d0c5780639524c5e314610bc85780639b8406d314610b5b578063b4b6219114610538578063b9c9f3961461046e578063caeb483d14610404578063d3722d011461038d578063da63dab714610211578063dd99d123146101c75763f637d9500361000e57346101c25760203660031901126101c257336000526002602052604060002060043560005260205261019c604060002060028101546001600160a01b038160201c1661017433821461155f565b610185600460038501549401611409565b9260ff60405195869560a0875260a08701906114ae565b9363ffffffff8116602087015260c01c1615156040850152606084015260808301520390f35b600080fd5b346101c25760203660031901126101c2576101e0611347565b6001600160a01b03906101f8826000541633146114ee565b166000908152600560205260409020805460ff19169055005b346101c25760003660031901126101c2576000806000906000903360005260039360209360038552604060002095604051808888829a54938481520190600052886000209260005b8a82821061037757505050610270925003886113e7565b60005b875181101561035b573360005260028088526040600020895183101561034557888360051b8b0101516000528852806040600020015460ff8160c01c166102bf575b5050600101610273565b91959163ffffffff1690816102e45750506102db6001916115aa565b945b90896102b5565b91959491600182036103035750506102fd6001916115aa565b936102dd565b91949391810361031f57506103196001916115aa565b926102dd565b9092908214610331575b6001906102dd565b9461033d6001916115aa565b959050610329565b634e487b7160e01b600052603260045260246000fd5b5050608093918560405194855284015260408301526060820152f35b855484526001958601958d955093019201610259565b346101c25760203660031901126101c2576004356000526006602052604060002080546104006001600160a01b036001840154169260ff60036002830154920154169060405194859485926001600160a01b03606093969592966080860197865216602085015260408401521515910152565b0390f35b346101c25760203660031901126101c25733600052600260205260406000206004356000526020526060604060002061044e336001600160a01b03600284015460201c161461155f565b805490600560018201549101549060405192835260208301526040820152f35b346101c25760403660031901126101c257336000526020600281526040600020600435600052815260406000203360005260028252604060002060243560005282526040600020906001600160a01b0333816002840154861c16149081610526575b50156104e25754905410604051908152f35b6064836040519062461bcd60e51b82526004820152601060248201527f417373657473206e6f74206f776e6564000000000000000000000000000000006044820152fd5b6002840154851c1633149050846104d0565b60803660031901126101c25767ffffffffffffffff6004351680600435036101c25767ffffffffffffffff602435169081602435036101c2576044359167ffffffffffffffff83116101c257366023840112156101c25767ffffffffffffffff8360040135116101c2573660248460040135850101116101c2576064359163ffffffff831683036101c257620f42403410610b1757600363ffffffff841611610ad357836004013515610a8f5715159081610a85575b5015610a415760015490610601826115aa565b60015561061182336004356115b9565b60018301808411610a2b5761062990336024356115b9565b9060405160208101907fffffffffffffffff0000000000000000000000000000000000000000000000008060043560c01b16835260243560c01b1660288201523360601b603082015242604482015260448152610685816113cb565b51902092604051928361010081011067ffffffffffffffff610100860111176109505763ffffffff92610100850160405284526020840152166040820152336060820152600160808201524260a0820152604051916106f26020601f19601f8860040135011601846113e7565b60048501358084526024860160208501376000602086600401358501015260c0820192835260e082015233600052600260205260406000208360005260205260406000209181518355602082015160018401556002830163ffffffff60408401511681549077ffffffffffffffffffffffffffffffffffffffff00000000606086015160201b16907fffffffffffffff0000000000000000000000000000000000000000000000000078ff0000000000000000000000000000000000000000000000006080880151151560c01b169316171717905560a082015160038401555180519067ffffffffffffffff8211610950576107f16004850154611375565b601f81116109e4575b50602090601f83116001146109715791806005949260e094600092610966575b50508160011b916000199060031b1c19161760048501555b0151910155336000526003602052604060002091825490680100000000000000008210156109505761086d826020956001869501815561135d565b81549060031b9084821b91600019901b19161790553360005260048452604060002061089981546115aa565b905533600052600484526002604060002042600182015501600160ff198254161790557fd9943d316e03c76a0277683e5fa4ed2b175e6568c8d3a22d9f0b32092e584a286040518581528260040135868201528260040135602484016040830137600060408460040135830101526040813394601f8019916004013501168101030190a36040514281527ffcfa0761dab6873023e04c2d8e99cefdc3d64ee860c8bdf9742211179e723bed833392a2604051908152f35b634e487b7160e01b600052604160045260246000fd5b01519050888061081a565b90601f198316916004860160005260206000209260005b8181106109cc575092600192859260e09660059896106109b3575b505050811b016004850155610832565b015160001960f88460031b161c191690558880806109a3565b92936020600181928786015181550195019301610988565b600485016000526020600020601f840160051c810160208510610a24575b601f830160051c82018110610a185750506107fa565b60008155600101610a02565b5080610a02565b634e487b7160e01b600052601160045260246000fd5b606460405162461bcd60e51b815260206004820152600e60248201527f496e76616c69642076616c7565730000000000000000000000000000000000006044820152fd5b90501515836105ee565b606460405162461bcd60e51b815260206004820152601360248201527f4173736574206e616d65207265717569726564000000000000000000000000006044820152fd5b606460405162461bcd60e51b815260206004820152601260248201527f496e76616c6964207269736b206c6576656c00000000000000000000000000006044820152fd5b606460405162461bcd60e51b815260206004820152601b60248201527f496e73756666696369656e74206d616e6167656d656e742066656500000000006044820152fd5b346101c25760203660031901126101c2576001600160a01b03610b7c611347565b16600052600460205260406000208054610400600183015492600360ff600283015416910154906040519485948590949392606092608083019683526020830152151560408201520152565b346101c25760003660031901126101c257336000526020600381526040600020604051808284829454938481520190600052846000209260005b86828210610cf65784610c17818603826113e7565b5115610cb257604051818101907f706f7274666f6c696f5f746f74616c000000000000000000000000000000000082523360601b602f82015242604382015260438152610c63816113cb565b519020336000526004825260406000208160038201556001429101556040518181527f31dd6318a53d560abb88a9b47742835216d6941dae2c856613bd6ceda1700ad5833392a2604051908152f35b6064906040519062461bcd60e51b82526004820152601660248201527f4e6f2061737365747320696e20706f7274666f6c696f000000000000000000006044820152fd5b8554845260019586019587955093019201610c02565b346101c25760003660031901126101c25760206001600160a01b0360005416604051908152f35b346101c25760003660031901126101c25733600052602060038152604060002060405190818382549182815201908192600052846000209060005b86828210610dc4578686610d84828803836113e7565b604051928392818401908285525180915260408401929160005b828110610dad57505050500390f35b835185528695509381019392810192600101610d9e565b835485529093019260019283019201610d6e565b346101c25760003660031901126101c257602047604051908152f35b346101c2576020806003193601126101c25760043533600052600282526040600020816000528252604060002090600282015460ff6001600160a01b0391610e41338483891c161461155f565b60c01c1615610f465760075492610e57846115aa565b60075560405190608082019282841067ffffffffffffffff85111761095057600387937fc34b0d3573d005c8257e5dbaf68bec7efabf8c46b90b65fdae74d88fbef492dc9560405286815284810133815260408201904282526060830194600086528a60005260068852604060002093518455600184019151167fffffffffffffffffffffffff0000000000000000000000000000000000000000825416179055516002820155019051151560ff801983541691161790556040519084867f81bca54e6c48c44ec959a5581796be73005cbde51156a29bae607f52e9baa16c600080a3548152a2604051908152f35b6064846040519062461bcd60e51b82526004820152601360248201527f4173736574206973206e6f7420616374697665000000000000000000000000006044820152fd5b346101c25760403660031901126101c257610fa3611347565b6001600160a01b038091166000526002602052604060002060243560005260205260406000208054611038600183015492600281015492600382015460ff6005610fef60048601611409565b94015495604051988998610100958a5260208a015263ffffffff821660408a01528160201c16606089015260c01c161515608087015260a08601528060c08601528401906114ae565b9060e08301520390f35b346101c25760003660031901126101c2576020604051818101904282524460408201523360601b60608201523060601b607482015260688152611084816113af565b519020604051908152f35b346101c25760003660031901126101c2576020604051620f42408152f35b346101c25760003660031901126101c25760008080806001600160a01b038154166110d98133146114ee565b47908282156110f7575bf1156110eb57005b6040513d6000823e3d90fd5b506108fc6110e3565b346101c25760403660031901126101c257611119611347565b6001600160a01b0360243591166000526003602052604060002080548210156101c2576020916111489161135d565b90549060031b1c604051908152f35b346101c2576020806003193601126101c2573360005260028152604060002060043560005281526002604060002001805461119e336001600160a01b0383861c161461155f565b60ff8160c01c1615611228577fffffffffffffff00ffffffffffffffffffffffffffffffffffffffffffffffff1690553360005260048152604060002080548015610a2b576000190190553360005260048152426001604060002001557ffcfa0761dab6873023e04c2d8e99cefdc3d64ee860c8bdf9742211179e723bed604051914283523392a2005b6064836040519062461bcd60e51b82526004820152601660248201527f417373657420616c726561647920696e616374697665000000000000000000006044820152fd5b346101c25760003660031901126101c2573360005260036020526020604060002054604051908152f35b346101c25760203660031901126101c2576001600160a01b036112b7611347565b166000526005602052602060ff604060002054166040519015158152f35b346101c25760203660031901126101c2576112ee611347565b6001600160a01b0390611306826000541633146114ee565b168060005260056020526040600020600160ff198254161790557f06983c15b8045ff4e0535c5593bfeb156f792a6c4c1958885852b6538bb54439600080a2005b600435906001600160a01b03821682036101c257565b80548210156103455760005260206000200190600090565b90600182811c921680156113a5575b602083101461138f57565b634e487b7160e01b600052602260045260246000fd5b91607f1691611384565b60a0810190811067ffffffffffffffff82111761095057604052565b6080810190811067ffffffffffffffff82111761095057604052565b90601f8019910116810190811067ffffffffffffffff82111761095057604052565b9060405191826000825461141c81611375565b9081845260209460019160018116908160001461148c575060011461144d575b50505061144b925003836113e7565b565b600090815285812095935091905b81831061147457505061144b935082010138808061143c565b8554888401850152948501948794509183019161145b565b9250505061144b94925060ff191682840152151560051b82010138808061143c565b919082519283825260005b8481106114da575050826000602080949584010152601f8019910116010190565b6020818301810151848301820152016114b9565b156114f557565b608460405162461bcd60e51b815260206004820152602160248201527f4f6e6c79206f776e65722063616e2063616c6c20746869732066756e6374696f60448201527f6e000000000000000000000000000000000000000000000000000000000000006064820152fd5b1561156657565b606460405162461bcd60e51b815260206004820152601c60248201527f4173736574206e6f7420666f756e64206f72206e6f74206f776e6564000000006044820152fd5b6000198114610a2b5760010190565b91604051917fffffffffffffffff000000000000000000000000000000000000000000000000602084019460c01b1684526bffffffffffffffffffffffff199060601b166028830152603c82015242605c8201523060601b607c82015260708152611623816113af565b5190209056fea2646970667358221220e62858aa5407e1d4422036ecd18d42c390c516edb2842f2c40f0a85d2b3463cb64736f6c63430008180033",
  "linkReferences": {},
  "deployedLinkReferences": {}
}